{
  "_format": "hh-sol-artifact-1",
  "contractName": "ZKUNFT",
  "sourceName": "contracts/ZKUNFT.sol",
  "abi": [
    {
      "inputs": [
        {
          "internalType": "string",
          "name": "_contractBaseURI",
          "type": "string"
        }
      ],
      "stateMutability": "nonpayable",
      "type": "constructor"
    },
    {
      "anonymous": false,
      "inputs": [
        {
          "indexed": true,
          "internalType": "address",
          "name": "owner",
          "type": "address"
        },
        {
          "indexed": true,
          "internalType": "address",
          "name": "approved",
          "type": "address"
        },
        {
          "indexed": true,
          "internalType": "uint256",
          "name": "tokenId",
          "type": "uint256"
        }
      ],
      "name": "Approval",
      "type": "event"
    },
    {
      "anonymous": false,
      "inputs": [
        {
          "indexed": true,
          "internalType": "address",
          "name": "owner",
          "type": "address"
        },
        {
          "indexed": true,
          "internalType": "address",
          "name": "operator",
          "type": "address"
        },
        {
          "indexed": false,
          "internalType": "bool",
          "name": "approved",
          "type": "bool"
        }
      ],
      "name": "ApprovalForAll",
      "type": "event"
    },
    {
      "anonymous": false,
      "inputs": [
        {
          "indexed": true,
          "internalType": "address",
          "name": "_receiver",
          "type": "address"
        },
        {
          "indexed": true,
          "internalType": "string",
          "name": "_cohortId",
          "type": "string"
        },
        {
          "indexed": false,
          "internalType": "uint128",
          "name": "_cohortIndex",
          "type": "uint128"
        },
        {
          "indexed": false,
          "internalType": "uint256",
          "name": "_contractIndex",
          "type": "uint256"
        },
        {
          "indexed": false,
          "internalType": "bool",
          "name": "_isAdmin",
          "type": "bool"
        }
      ],
      "name": "Claim",
      "type": "event"
    },
    {
      "anonymous": false,
      "inputs": [
        {
          "indexed": true,
          "internalType": "address",
          "name": "previousOwner",
          "type": "address"
        },
        {
          "indexed": true,
          "internalType": "address",
          "name": "newOwner",
          "type": "address"
        }
      ],
      "name": "OwnershipTransferred",
      "type": "event"
    },
    {
      "anonymous": false,
      "inputs": [
        {
          "indexed": true,
          "internalType": "address",
          "name": "from",
          "type": "address"
        },
        {
          "indexed": true,
          "internalType": "address",
          "name": "to",
          "type": "address"
        },
        {
          "indexed": true,
          "internalType": "uint256",
          "name": "tokenId",
          "type": "uint256"
        }
      ],
      "name": "Transfer",
      "type": "event"
    },
    {
      "inputs": [
        {
          "internalType": "string",
          "name": "_cohortId",
          "type": "string"
        }
      ],
      "name": "_getCohortDetails",
      "outputs": [
        {
          "internalType": "bytes32[]",
          "name": "",
          "type": "bytes32[]"
        },
        {
          "internalType": "bytes32",
          "name": "",
          "type": "bytes32"
        },
        {
          "internalType": "string",
          "name": "",
          "type": "string"
        }
      ],
      "stateMutability": "view",
      "type": "function"
    },
    {
      "inputs": [
        {
          "internalType": "string",
          "name": "_cohortId",
          "type": "string"
        },
        {
          "internalType": "bytes32[]",
          "name": "_proof",
          "type": "bytes32[]"
        },
        {
          "internalType": "address",
          "name": "to",
          "type": "address"
        },
        {
          "internalType": "string",
          "name": "_ipfsHash",
          "type": "string"
        }
      ],
      "name": "adminClaimToken",
      "outputs": [
        {
          "internalType": "uint256",
          "name": "",
          "type": "uint256"
        }
      ],
      "stateMutability": "nonpayable",
      "type": "function"
    },
    {
      "inputs": [
        {
          "internalType": "address",
          "name": "to",
          "type": "address"
        },
        {
          "internalType": "uint256",
          "name": "tokenId",
          "type": "uint256"
        }
      ],
      "name": "approve",
      "outputs": [],
      "stateMutability": "nonpayable",
      "type": "function"
    },
    {
      "inputs": [
        {
          "internalType": "address",
          "name": "owner",
          "type": "address"
        }
      ],
      "name": "balanceOf",
      "outputs": [
        {
          "internalType": "uint256",
          "name": "",
          "type": "uint256"
        }
      ],
      "stateMutability": "view",
      "type": "function"
    },
    {
      "inputs": [],
      "name": "baseURI",
      "outputs": [
        {
          "internalType": "string",
          "name": "",
          "type": "string"
        }
      ],
      "stateMutability": "view",
      "type": "function"
    },
    {
      "inputs": [
        {
          "internalType": "string",
          "name": "_cohortId",
          "type": "string"
        },
        {
          "internalType": "bytes32[]",
          "name": "_proof",
          "type": "bytes32[]"
        },
        {
          "internalType": "string",
          "name": "_ipfsHash",
          "type": "string"
        }
      ],
      "name": "claimToken",
      "outputs": [
        {
          "internalType": "uint256",
          "name": "",
          "type": "uint256"
        }
      ],
      "stateMutability": "nonpayable",
      "type": "function"
    },
    {
      "inputs": [
        {
          "internalType": "address",
          "name": "",
          "type": "address"
        },
        {
          "internalType": "string",
          "name": "",
          "type": "string"
        }
      ],
      "name": "claimed",
      "outputs": [
        {
          "internalType": "uint256",
          "name": "",
          "type": "uint256"
        }
      ],
      "stateMutability": "view",
      "type": "function"
    },
    {
      "inputs": [
        {
          "internalType": "string",
          "name": "",
          "type": "string"
        }
      ],
      "name": "cohorts",
      "outputs": [
        {
          "internalType": "uint128",
          "name": "limit",
          "type": "uint128"
        },
        {
          "internalType": "uint128",
          "name": "tokenMinted",
          "type": "uint128"
        },
        {
          "internalType": "bytes32",
          "name": "merkleRoot",
          "type": "bytes32"
        },
        {
          "internalType": "string",
          "name": "ipfsHash",
          "type": "string"
        }
      ],
      "stateMutability": "view",
      "type": "function"
    },
    {
      "inputs": [
        {
          "internalType": "string",
          "name": "_cohortId",
          "type": "string"
        },
        {
          "internalType": "uint128",
          "name": "_limit",
          "type": "uint128"
        },
        {
          "internalType": "bytes32",
          "name": "_merkleRoot",
          "type": "bytes32"
        },
        {
          "internalType": "bytes32[]",
          "name": "_whitelistedAddresses",
          "type": "bytes32[]"
        },
        {
          "internalType": "string",
          "name": "_ipfsHash",
          "type": "string"
        }
      ],
      "name": "createCohort",
      "outputs": [],
      "stateMutability": "nonpayable",
      "type": "function"
    },
    {
      "inputs": [
        {
          "internalType": "uint256",
          "name": "tokenId",
          "type": "uint256"
        }
      ],
      "name": "getApproved",
      "outputs": [
        {
          "internalType": "address",
          "name": "",
          "type": "address"
        }
      ],
      "stateMutability": "view",
      "type": "function"
    },
    {
      "inputs": [
        {
          "internalType": "address",
          "name": "owner",
          "type": "address"
        },
        {
          "internalType": "address",
          "name": "operator",
          "type": "address"
        }
      ],
      "name": "isApprovedForAll",
      "outputs": [
        {
          "internalType": "bool",
          "name": "",
          "type": "bool"
        }
      ],
      "stateMutability": "view",
      "type": "function"
    },
    {
      "inputs": [],
      "name": "name",
      "outputs": [
        {
          "internalType": "string",
          "name": "",
          "type": "string"
        }
      ],
      "stateMutability": "view",
      "type": "function"
    },
    {
      "inputs": [],
      "name": "owner",
      "outputs": [
        {
          "internalType": "address",
          "name": "",
          "type": "address"
        }
      ],
      "stateMutability": "view",
      "type": "function"
    },
    {
      "inputs": [
        {
          "internalType": "uint256",
          "name": "tokenId",
          "type": "uint256"
        }
      ],
      "name": "ownerOf",
      "outputs": [
        {
          "internalType": "address",
          "name": "",
          "type": "address"
        }
      ],
      "stateMutability": "view",
      "type": "function"
    },
    {
      "inputs": [],
      "name": "renounceOwnership",
      "outputs": [],
      "stateMutability": "nonpayable",
      "type": "function"
    },
    {
      "inputs": [
        {
          "internalType": "address",
          "name": "from",
          "type": "address"
        },
        {
          "internalType": "address",
          "name": "to",
          "type": "address"
        },
        {
          "internalType": "uint256",
          "name": "tokenId",
          "type": "uint256"
        }
      ],
      "name": "safeTransferFrom",
      "outputs": [],
      "stateMutability": "nonpayable",
      "type": "function"
    },
    {
      "inputs": [
        {
          "internalType": "address",
          "name": "from",
          "type": "address"
        },
        {
          "internalType": "address",
          "name": "to",
          "type": "address"
        },
        {
          "internalType": "uint256",
          "name": "tokenId",
          "type": "uint256"
        },
        {
          "internalType": "bytes",
          "name": "_data",
          "type": "bytes"
        }
      ],
      "name": "safeTransferFrom",
      "outputs": [],
      "stateMutability": "nonpayable",
      "type": "function"
    },
    {
      "inputs": [
        {
          "internalType": "bool",
          "name": "_allowsTransfers",
          "type": "bool"
        }
      ],
      "name": "setAllowsTransfers",
      "outputs": [],
      "stateMutability": "nonpayable",
      "type": "function"
    },
    {
      "inputs": [
        {
          "internalType": "address",
          "name": "operator",
          "type": "address"
        },
        {
          "internalType": "bool",
          "name": "approved",
          "type": "bool"
        }
      ],
      "name": "setApprovalForAll",
      "outputs": [],
      "stateMutability": "nonpayable",
      "type": "function"
    },
    {
      "inputs": [
        {
          "internalType": "string",
          "name": "_cohortId",
          "type": "string"
        },
        {
          "internalType": "bytes32",
          "name": "_merkleRoot",
          "type": "bytes32"
        }
      ],
      "name": "setMerkleRoot",
      "outputs": [],
      "stateMutability": "nonpayable",
      "type": "function"
    },
    {
      "inputs": [
        {
          "internalType": "string",
          "name": "_cohortId",
          "type": "string"
        },
        {
          "internalType": "bytes32[]",
          "name": "_whitelistedAddresses",
          "type": "bytes32[]"
        },
        {
          "internalType": "uint128",
          "name": "_limit",
          "type": "uint128"
        }
      ],
      "name": "setWhitelist",
      "outputs": [],
      "stateMutability": "nonpayable",
      "type": "function"
    },
    {
      "inputs": [
        {
          "internalType": "bytes4",
          "name": "interfaceId",
          "type": "bytes4"
        }
      ],
      "name": "supportsInterface",
      "outputs": [
        {
          "internalType": "bool",
          "name": "",
          "type": "bool"
        }
      ],
      "stateMutability": "view",
      "type": "function"
    },
    {
      "inputs": [],
      "name": "symbol",
      "outputs": [
        {
          "internalType": "string",
          "name": "",
          "type": "string"
        }
      ],
      "stateMutability": "view",
      "type": "function"
    },
    {
      "inputs": [
        {
          "internalType": "uint256",
          "name": "index",
          "type": "uint256"
        }
      ],
      "name": "tokenByIndex",
      "outputs": [
        {
          "internalType": "uint256",
          "name": "",
          "type": "uint256"
        }
      ],
      "stateMutability": "view",
      "type": "function"
    },
    {
      "inputs": [
        {
          "internalType": "address",
          "name": "owner",
          "type": "address"
        },
        {
          "internalType": "uint256",
          "name": "index",
          "type": "uint256"
        }
      ],
      "name": "tokenOfOwnerByIndex",
      "outputs": [
        {
          "internalType": "uint256",
          "name": "",
          "type": "uint256"
        }
      ],
      "stateMutability": "view",
      "type": "function"
    },
    {
      "inputs": [
        {
          "internalType": "uint256",
          "name": "tokenId",
          "type": "uint256"
        }
      ],
      "name": "tokenURI",
      "outputs": [
        {
          "internalType": "string",
          "name": "",
          "type": "string"
        }
      ],
      "stateMutability": "view",
      "type": "function"
    },
    {
      "inputs": [],
      "name": "totalSupply",
      "outputs": [
        {
          "internalType": "uint256",
          "name": "",
          "type": "uint256"
        }
      ],
      "stateMutability": "view",
      "type": "function"
    },
    {
      "inputs": [
        {
          "internalType": "address",
          "name": "from",
          "type": "address"
        },
        {
          "internalType": "address",
          "name": "to",
          "type": "address"
        },
        {
          "internalType": "uint256",
          "name": "tokenId",
          "type": "uint256"
        }
      ],
      "name": "transferFrom",
      "outputs": [],
      "stateMutability": "nonpayable",
      "type": "function"
    },
    {
      "inputs": [
        {
          "internalType": "address",
          "name": "newOwner",
          "type": "address"
        }
      ],
      "name": "transferOwnership",
      "outputs": [],
      "stateMutability": "nonpayable",
      "type": "function"
    },
    {
      "inputs": [
        {
          "internalType": "address",
          "name": "_admin",
          "type": "address"
        },
        {
          "internalType": "bool",
          "name": "isAdmin",
          "type": "bool"
        }
      ],
      "name": "updateAdmin",
      "outputs": [],
      "stateMutability": "nonpayable",
      "type": "function"
    }
  ],
  "bytecode": "0x60806040526000601060006101000a81548160ff0219169083151502179055503480156200002c57600080fd5b5060405162005ba538038062005ba5833981810160405260208110156200005257600080fd5b81019080805160405193929190846401000000008211156200007357600080fd5b838201915060208201858111156200008a57600080fd5b8251866001820283011164010000000082111715620000a857600080fd5b8083526020830192505050908051906020019080838360005b83811015620000de578082015181840152602081019050620000c1565b50505050905090810190601f1680156200010c5780820380516001836020036101000a031916815260200191505b506040525050506040518060400160405280600381526020017f7a6b7500000000000000000000000000000000000000000000000000000000008152506040518060400160405280600381526020017f5a4b550000000000000000000000000000000000000000000000000000000000815250620001976301ffc9a760e01b6200033c60201b60201c565b8160069080519060200190620001af9291906200044d565b508060079080519060200190620001c89291906200044d565b50620001e16380ac58cd60e01b6200033c60201b60201c565b620001f9635b5e139f60e01b6200033c60201b60201c565b6200021163780e9d6360e01b6200033c60201b60201c565b50506000620002256200044560201b60201c565b905080600a60006101000a81548173ffffffffffffffffffffffffffffffffffffffff021916908373ffffffffffffffffffffffffffffffffffffffff1602179055508073ffffffffffffffffffffffffffffffffffffffff16600073ffffffffffffffffffffffffffffffffffffffff167f8be0079c531659141344cd1fd0a4f28419497f9722a3daafe3b4186f6b6457e060405160405180910390a3506001600c60003373ffffffffffffffffffffffffffffffffffffffff1673ffffffffffffffffffffffffffffffffffffffff16815260200190815260200160002060006101000a81548160ff02191690831515021790555080600f9080519060200190620003349291906200044d565b505062000503565b63ffffffff60e01b817bffffffffffffffffffffffffffffffffffffffffffffffffffffffff19161415620003d9576040517f08c379a000000000000000000000000000000000000000000000000000000000815260040180806020018281038252601c8152602001807f4552433136353a20696e76616c696420696e746572666163652069640000000081525060200191505060405180910390fd5b6001600080837bffffffffffffffffffffffffffffffffffffffffffffffffffffffff19167bffffffffffffffffffffffffffffffffffffffffffffffffffffffff1916815260200190815260200160002060006101000a81548160ff02191690831515021790555050565b600033905090565b828054600181600116156101000203166002900490600052602060002090601f016020900481019282620004855760008555620004d1565b82601f10620004a057805160ff1916838001178555620004d1565b82800160010185558215620004d1579182015b82811115620004d0578251825591602001919060010190620004b3565b5b509050620004e09190620004e4565b5090565b5b80821115620004ff576000816000905550600101620004e5565b5090565b61569280620005136000396000f3fe608060405234801561001057600080fd5b50600436106101da5760003560e01c8063670a6fd911610104578063a22cb465116100a2578063c87b56dd11610071578063c87b56dd14611412578063dbc19102146114b9578063e985e9c5146115a8578063f2fde38b14611622576101da565b8063a22cb46514610fec578063a96816911461103c578063b7aafa8714611248578063b88d4fde1461130d576101da565b8063715018a6116100de578063715018a614610dbe5780638da5cb5b14610dc85780638ffc391a14610dfc57806395d89b4114610f69576101da565b8063670a6fd914610c935780636c0360eb14610ce357806370a0823114610d66576101da565b806318160ddd1161017c5780634f6ccce71161014b5780634f6ccce714610a46578063509ac0e514610a885780635e51d31a14610c0b5780636352211e14610c3b576101da565b806318160ddd146108ea57806323b872dd146109085780632f745c591461097657806342842e0e146109d8576101da565b806306fdde03116101b857806306fdde03146105c7578063081812fc1461064a578063095ea7b3146106a25780630dbfe6bb146106f0576101da565b806301ffc9a7146101df57806305dbb5581461024257806306724f5e146103ad575b600080fd5b61022a600480360360208110156101f557600080fd5b8101908080357bffffffffffffffffffffffffffffffffffffffffffffffffffffffff19169060200190929190505050611666565b60405180821515815260200191505060405180910390f35b6103ab6004803603606081101561025857600080fd5b810190808035906020019064010000000081111561027557600080fd5b82018360208201111561028757600080fd5b803590602001918460018302840111640100000000831117156102a957600080fd5b91908080601f016020809104026020016040519081016040528093929190818152602001838380828437600081840152601f19601f8201169050808301925050505050505091929192908035906020019064010000000081111561030c57600080fd5b82018360208201111561031e57600080fd5b8035906020019184602083028401116401000000008311171561034057600080fd5b919080806020026020016040519081016040528093929190818152602001838360200280828437600081840152601f19601f82011690508083019250505050505050919291929080356fffffffffffffffffffffffffffffffff1690602001909291905050506116cd565b005b6105b1600480360360808110156103c357600080fd5b81019080803590602001906401000000008111156103e057600080fd5b8201836020820111156103f257600080fd5b8035906020019184600183028401116401000000008311171561041457600080fd5b91908080601f016020809104026020016040519081016040528093929190818152602001838380828437600081840152601f19601f8201169050808301925050505050505091929192908035906020019064010000000081111561047757600080fd5b82018360208201111561048957600080fd5b803590602001918460208302840111640100000000831117156104ab57600080fd5b919080806020026020016040519081016040528093929190818152602001838360200280828437600081840152601f19601f820116905080830192505050505050509192919290803573ffffffffffffffffffffffffffffffffffffffff1690602001909291908035906020019064010000000081111561052b57600080fd5b82018360208201111561053d57600080fd5b8035906020019184600183028401116401000000008311171561055f57600080fd5b91908080601f016020809104026020016040519081016040528093929190818152602001838380828437600081840152601f19601f820116905080830192505050505050509192919290505050611963565b6040518082815260200191505060405180910390f35b6105cf611af0565b6040518080602001828103825283818151815260200191508051906020019080838360005b8381101561060f5780820151818401526020810190506105f4565b50505050905090810190601f16801561063c5780820380516001836020036101000a031916815260200191505b509250505060405180910390f35b6106766004803603602081101561066057600080fd5b8101908080359060200190929190505050611b92565b604051808273ffffffffffffffffffffffffffffffffffffffff16815260200191505060405180910390f35b6106ee600480360360408110156106b857600080fd5b81019080803573ffffffffffffffffffffffffffffffffffffffff16906020019092919080359060200190929190505050611c2d565b005b6108d46004803603606081101561070657600080fd5b810190808035906020019064010000000081111561072357600080fd5b82018360208201111561073557600080fd5b8035906020019184600183028401116401000000008311171561075757600080fd5b91908080601f016020809104026020016040519081016040528093929190818152602001838380828437600081840152601f19601f820116905080830192505050505050509192919290803590602001906401000000008111156107ba57600080fd5b8201836020820111156107cc57600080fd5b803590602001918460208302840111640100000000831117156107ee57600080fd5b919080806020026020016040519081016040528093929190818152602001838360200280828437600081840152601f19601f8201169050808301925050505050505091929192908035906020019064010000000081111561084e57600080fd5b82018360208201111561086057600080fd5b8035906020019184600183028401116401000000008311171561088257600080fd5b91908080601f016020809104026020016040519081016040528093929190818152602001838380828437600081840152601f19601f820116905080830192505050505050509192919290505050611d71565b6040518082815260200191505060405180910390f35b6108f2611fb1565b6040518082815260200191505060405180910390f35b6109746004803603606081101561091e57600080fd5b81019080803573ffffffffffffffffffffffffffffffffffffffff169060200190929190803573ffffffffffffffffffffffffffffffffffffffff16906020019092919080359060200190929190505050611fc2565b005b6109c26004803603604081101561098c57600080fd5b81019080803573ffffffffffffffffffffffffffffffffffffffff16906020019092919080359060200190929190505050612038565b6040518082815260200191505060405180910390f35b610a44600480360360608110156109ee57600080fd5b81019080803573ffffffffffffffffffffffffffffffffffffffff169060200190929190803573ffffffffffffffffffffffffffffffffffffffff16906020019092919080359060200190929190505050612093565b005b610a7260048036036020811015610a5c57600080fd5b81019080803590602001909291905050506120b3565b6040518082815260200191505060405180910390f35b610b4160048036036020811015610a9e57600080fd5b8101908080359060200190640100000000811115610abb57600080fd5b820183602082011115610acd57600080fd5b80359060200191846001830284011164010000000083111715610aef57600080fd5b91908080601f016020809104026020016040519081016040528093929190818152602001838380828437600081840152601f19601f8201169050808301925050505050505091929192905050506120d6565b604051808060200184815260200180602001838103835286818151815260200191508051906020019060200280838360005b83811015610b8e578082015181840152602081019050610b73565b50505050905001838103825284818151815260200191508051906020019080838360005b83811015610bcd578082015181840152602081019050610bb2565b50505050905090810190601f168015610bfa5780820380516001836020036101000a031916815260200191505b509550505050505060405180910390f35b610c3960048036036020811015610c2157600080fd5b8101908080351515906020019092919050505061231c565b005b610c6760048036036020811015610c5157600080fd5b8101908080359060200190929190505050612396565b604051808273ffffffffffffffffffffffffffffffffffffffff16815260200191505060405180910390f35b610ce160048036036040811015610ca957600080fd5b81019080803573ffffffffffffffffffffffffffffffffffffffff1690602001909291908035151590602001909291905050506123cd565b005b610ceb6124d7565b6040518080602001828103825283818151815260200191508051906020019080838360005b83811015610d2b578082015181840152602081019050610d10565b50505050905090810190601f168015610d585780820380516001836020036101000a031916815260200191505b509250505060405180910390f35b610da860048036036020811015610d7c57600080fd5b81019080803573ffffffffffffffffffffffffffffffffffffffff169060200190929190505050612579565b6040518082815260200191505060405180910390f35b610dc661264e565b005b610dd06127be565b604051808273ffffffffffffffffffffffffffffffffffffffff16815260200191505060405180910390f35b610eb560048036036020811015610e1257600080fd5b8101908080359060200190640100000000811115610e2f57600080fd5b820183602082011115610e4157600080fd5b80359060200191846001830284011164010000000083111715610e6357600080fd5b91908080601f016020809104026020016040519081016040528093929190818152602001838380828437600081840152601f19601f8201169050808301925050505050505091929192905050506127e8565b60405180856fffffffffffffffffffffffffffffffff168152602001846fffffffffffffffffffffffffffffffff16815260200183815260200180602001828103825283818151815260200191508051906020019080838360005b83811015610f2b578082015181840152602081019050610f10565b50505050905090810190601f168015610f585780820380516001836020036101000a031916815260200191505b509550505050505060405180910390f35b610f716128fe565b6040518080602001828103825283818151815260200191508051906020019080838360005b83811015610fb1578082015181840152602081019050610f96565b50505050905090810190601f168015610fde5780820380516001836020036101000a031916815260200191505b509250505060405180910390f35b61103a6004803603604081101561100257600080fd5b81019080803573ffffffffffffffffffffffffffffffffffffffff1690602001909291908035151590602001909291905050506129a0565b005b611246600480360360a081101561105257600080fd5b810190808035906020019064010000000081111561106f57600080fd5b82018360208201111561108157600080fd5b803590602001918460018302840111640100000000831117156110a357600080fd5b91908080601f016020809104026020016040519081016040528093929190818152602001838380828437600081840152601f19601f82011690508083019250505050505050919291929080356fffffffffffffffffffffffffffffffff169060200190929190803590602001909291908035906020019064010000000081111561112c57600080fd5b82018360208201111561113e57600080fd5b8035906020019184602083028401116401000000008311171561116057600080fd5b919080806020026020016040519081016040528093929190818152602001838360200280828437600081840152601f19601f820116905080830192505050505050509192919290803590602001906401000000008111156111c057600080fd5b8201836020820111156111d257600080fd5b803590602001918460018302840111640100000000831117156111f457600080fd5b91908080601f016020809104026020016040519081016040528093929190818152602001838380828437600081840152601f19601f820116905080830192505050505050509192919290505050612b56565b005b61130b6004803603604081101561125e57600080fd5b810190808035906020019064010000000081111561127b57600080fd5b82018360208201111561128d57600080fd5b803590602001918460018302840111640100000000831117156112af57600080fd5b91908080601f016020809104026020016040519081016040528093929190818152602001838380828437600081840152601f19601f82011690508083019250505050505050919291929080359060200190929190505050612eb5565b005b6114106004803603608081101561132357600080fd5b81019080803573ffffffffffffffffffffffffffffffffffffffff169060200190929190803573ffffffffffffffffffffffffffffffffffffffff169060200190929190803590602001909291908035906020019064010000000081111561138a57600080fd5b82018360208201111561139c57600080fd5b803590602001918460018302840111640100000000831117156113be57600080fd5b91908080601f016020809104026020016040519081016040528093929190818152602001838380828437600081840152601f19601f820116905080830192505050505050509192919290505050613097565b005b61143e6004803603602081101561142857600080fd5b810190808035906020019092919050505061310f565b6040518080602001828103825283818151815260200191508051906020019080838360005b8381101561147e578082015181840152602081019050611463565b50505050905090810190601f1680156114ab5780820380516001836020036101000a031916815260200191505b509250505060405180910390f35b611592600480360360408110156114cf57600080fd5b81019080803573ffffffffffffffffffffffffffffffffffffffff1690602001909291908035906020019064010000000081111561150c57600080fd5b82018360208201111561151e57600080fd5b8035906020019184600183028401116401000000008311171561154057600080fd5b91908080601f016020809104026020016040519081016040528093929190818152602001838380828437600081840152601f19601f8201169050808301925050505050505091929192905050506133e0565b6040518082815260200191505060405180910390f35b61160a600480360360408110156115be57600080fd5b81019080803573ffffffffffffffffffffffffffffffffffffffff169060200190929190803573ffffffffffffffffffffffffffffffffffffffff16906020019092919050505061341b565b60405180821515815260200191505060405180910390f35b6116646004803603602081101561163857600080fd5b81019080803573ffffffffffffffffffffffffffffffffffffffff1690602001909291905050506134af565b005b6000806000837bffffffffffffffffffffffffffffffffffffffffffffffffffffffff19167bffffffffffffffffffffffffffffffffffffffffffffffffffffffff1916815260200190815260200160002060009054906101000a900460ff169050919050565b60011515600c60003373ffffffffffffffffffffffffffffffffffffffff1673ffffffffffffffffffffffffffffffffffffffff16815260200190815260200160002060009054906101000a900460ff1615151461172a57600080fd5b6000600d846040518082805190602001908083835b60208310611762578051825260208201915060208101905060208303925061173f565b6001836020036101000a038019825116818451168082178552505050505050905001915050908152602001604051809103902060000160009054906101000a90046fffffffffffffffffffffffffffffffff166fffffffffffffffffffffffffffffffff161161183a576040517f08c379a00000000000000000000000000000000000000000000000000000000081526004018080602001828103825260188152602001807f5a4b553a204e6f20636f686f7274206c696d697420736574000000000000000081525060200191505060405180910390fd5b81600d846040518082805190602001908083835b60208310611871578051825260208201915060208101905060208303925061184e565b6001836020036101000a038019825116818451168082178552505050505050905001915050908152602001604051809103902060020190805190602001906118ba92919061521c565b5080600d846040518082805190602001908083835b602083106118f257805182526020820191506020810190506020830392506118cf565b6001836020036101000a038019825116818451168082178552505050505050905001915050908152602001604051809103902060000160006101000a8154816fffffffffffffffffffffffffffffffff02191690836fffffffffffffffffffffffffffffffff160217905550505050565b600060011515600c60003373ffffffffffffffffffffffffffffffffffffffff1673ffffffffffffffffffffffffffffffffffffffff16815260200190815260200160002060009054906101000a900460ff161515146119c257600080fd5b848484600081604051602001808273ffffffffffffffffffffffffffffffffffffffff1660601b8152601401915050604051602081830303815290604052805190602001209050611a8083600d866040518082805190602001908083835b60208310611a435780518252602082019150602081019050602083039250611a20565b6001836020036101000a038019825116818451168082178552505050505050905001915050908152602001604051809103902060010154836136a4565b611ad5576040517f08c379a00000000000000000000000000000000000000000000000000000000081526004018080602001828103825260238152602001806153546023913960400191505060405180910390fd5b611ae28988600189613759565b945050505050949350505050565b606060068054600181600116156101000203166002900480601f016020809104026020016040519081016040528092919081815260200182805460018160011615610100020316600290048015611b885780601f10611b5d57610100808354040283529160200191611b88565b820191906000526020600020905b815481529060010190602001808311611b6b57829003601f168201915b5050505050905090565b6000611b9d82613da0565b611bf2576040517f08c379a000000000000000000000000000000000000000000000000000000000815260040180806020018281038252602c815260200180615513602c913960400191505060405180910390fd5b6004600083815260200190815260200160002060009054906101000a900473ffffffffffffffffffffffffffffffffffffffff169050919050565b6000611c3882612396565b90508073ffffffffffffffffffffffffffffffffffffffff168373ffffffffffffffffffffffffffffffffffffffff161415611cbf576040517f08c379a000000000000000000000000000000000000000000000000000000000815260040180806020018281038252602181526020018061560b6021913960400191505060405180910390fd5b8073ffffffffffffffffffffffffffffffffffffffff16611cde613dbd565b73ffffffffffffffffffffffffffffffffffffffff161480611d0d5750611d0c81611d07613dbd565b61341b565b5b611d62576040517f08c379a00000000000000000000000000000000000000000000000000000000081526004018080602001828103825260388152602001806154456038913960400191505060405180910390fd5b611d6c8383613dc5565b505050565b6000838333600081604051602001808273ffffffffffffffffffffffffffffffffffffffff1660601b8152601401915050604051602081830303815290604052805190602001209050611e3183600d866040518082805190602001908083835b60208310611df45780518252602082019150602081019050602083039250611dd1565b6001836020036101000a038019825116818451168082178552505050505050905001915050908152602001604051809103902060010154836136a4565b611e86576040517f08c379a00000000000000000000000000000000000000000000000000000000081526004018080602001828103825260238152602001806153546023913960400191505060405180910390fd5b600033604051602001808273ffffffffffffffffffffffffffffffffffffffff1660601b8152601401915050604051602081830303815290604052805190602001209050611f4188600d8b6040518082805190602001908083835b60208310611f045780518252602082019150602081019050602083039250611ee1565b6001836020036101000a038019825116818451168082178552505050505050905001915050908152602001604051809103902060010154836136a4565b611f96576040517f08c379a00000000000000000000000000000000000000000000000000000000081526004018080602001828103825260238152602001806153546023913960400191505060405180910390fd5b611fa3893360008a613759565b955050505050509392505050565b6000611fbd6002613e7e565b905090565b611fd3611fcd613dbd565b82613e93565b612028576040517f08c379a000000000000000000000000000000000000000000000000000000000815260040180806020018281038252603181526020018061562c6031913960400191505060405180910390fd5b612033838383613f87565b505050565b600061208b82600160008673ffffffffffffffffffffffffffffffffffffffff1673ffffffffffffffffffffffffffffffffffffffff1681526020019081526020016000206141ca90919063ffffffff16565b905092915050565b6120ae83838360405180602001604052806000815250613097565b505050565b6000806120ca8360026141e490919063ffffffff16565b50905080915050919050565b606060006060600d846040518082805190602001908083835b6020831061211257805182526020820191506020810190506020830392506120ef565b6001836020036101000a0380198251168184511680821785525050505050509050019150509081526020016040518091039020600201600d856040518082805190602001908083835b6020831061217e578051825260208201915060208101905060208303925061215b565b6001836020036101000a038019825116818451168082178552505050505050905001915050908152602001604051809103902060010154600d866040518082805190602001908083835b602083106121eb57805182526020820191506020810190506020830392506121c8565b6001836020036101000a03801982511681845116808217855250505050505090500191505090815260200160405180910390206003018280548060200260200160405190810160405280929190818152602001828054801561226c57602002820191906000526020600020905b815481526020019060010190808311612258575b50505050509250808054600181600116156101000203166002900480601f0160208091040260200160405190810160405280929190818152602001828054600181600116156101000203166002900480156123085780601f106122dd57610100808354040283529160200191612308565b820191906000526020600020905b8154815290600101906020018083116122eb57829003601f168201915b505050505090509250925092509193909250565b60011515600c60003373ffffffffffffffffffffffffffffffffffffffff1673ffffffffffffffffffffffffffffffffffffffff16815260200190815260200160002060009054906101000a900460ff1615151461237957600080fd5b80601060006101000a81548160ff02191690831515021790555050565b60006123c6826040518060600160405280602981526020016154a76029913960026142109092919063ffffffff16565b9050919050565b6123d5613dbd565b73ffffffffffffffffffffffffffffffffffffffff166123f36127be565b73ffffffffffffffffffffffffffffffffffffffff161461247c576040517f08c379a00000000000000000000000000000000000000000000000000000000081526004018080602001828103825260208152602001807f4f776e61626c653a2063616c6c6572206973206e6f7420746865206f776e657281525060200191505060405180910390fd5b80600c60008473ffffffffffffffffffffffffffffffffffffffff1673ffffffffffffffffffffffffffffffffffffffff16815260200190815260200160002060006101000a81548160ff0219169083151502179055505050565b606060098054600181600116156101000203166002900480601f01602080910402602001604051908101604052809291908181526020018280546001816001161561010002031660029004801561256f5780601f106125445761010080835404028352916020019161256f565b820191906000526020600020905b81548152906001019060200180831161255257829003601f168201915b5050505050905090565b60008073ffffffffffffffffffffffffffffffffffffffff168273ffffffffffffffffffffffffffffffffffffffff161415612600576040517f08c379a000000000000000000000000000000000000000000000000000000000815260040180806020018281038252602a81526020018061547d602a913960400191505060405180910390fd5b612647600160008473ffffffffffffffffffffffffffffffffffffffff1673ffffffffffffffffffffffffffffffffffffffff16815260200190815260200160002061422f565b9050919050565b612656613dbd565b73ffffffffffffffffffffffffffffffffffffffff166126746127be565b73ffffffffffffffffffffffffffffffffffffffff16146126fd576040517f08c379a00000000000000000000000000000000000000000000000000000000081526004018080602001828103825260208152602001807f4f776e61626c653a2063616c6c6572206973206e6f7420746865206f776e657281525060200191505060405180910390fd5b600073ffffffffffffffffffffffffffffffffffffffff16600a60009054906101000a900473ffffffffffffffffffffffffffffffffffffffff1673ffffffffffffffffffffffffffffffffffffffff167f8be0079c531659141344cd1fd0a4f28419497f9722a3daafe3b4186f6b6457e060405160405180910390a36000600a60006101000a81548173ffffffffffffffffffffffffffffffffffffffff021916908373ffffffffffffffffffffffffffffffffffffffff160217905550565b6000600a60009054906101000a900473ffffffffffffffffffffffffffffffffffffffff16905090565b600d818051602081018201805184825260208301602085012081835280955050505050506000915090508060000160009054906101000a90046fffffffffffffffffffffffffffffffff16908060000160109054906101000a90046fffffffffffffffffffffffffffffffff1690806001015490806003018054600181600116156101000203166002900480601f0160208091040260200160405190810160405280929190818152602001828054600181600116156101000203166002900480156128f45780601f106128c9576101008083540402835291602001916128f4565b820191906000526020600020905b8154815290600101906020018083116128d757829003601f168201915b5050505050905084565b606060078054600181600116156101000203166002900480601f0160208091040260200160405190810160405280929190818152602001828054600181600116156101000203166002900480156129965780601f1061296b57610100808354040283529160200191612996565b820191906000526020600020905b81548152906001019060200180831161297957829003601f168201915b5050505050905090565b6129a8613dbd565b73ffffffffffffffffffffffffffffffffffffffff168273ffffffffffffffffffffffffffffffffffffffff161415612a49576040517f08c379a00000000000000000000000000000000000000000000000000000000081526004018080602001828103825260198152602001807f4552433732313a20617070726f766520746f2063616c6c65720000000000000081525060200191505060405180910390fd5b8060056000612a56613dbd565b73ffffffffffffffffffffffffffffffffffffffff1673ffffffffffffffffffffffffffffffffffffffff16815260200190815260200160002060008473ffffffffffffffffffffffffffffffffffffffff1673ffffffffffffffffffffffffffffffffffffffff16815260200190815260200160002060006101000a81548160ff0219169083151502179055508173ffffffffffffffffffffffffffffffffffffffff16612b03613dbd565b73ffffffffffffffffffffffffffffffffffffffff167f17307eab39ab6107e8899845ad3d59bd9653f200f220920489ca2b5937696c318360405180821515815260200191505060405180910390a35050565b60011515600c60003373ffffffffffffffffffffffffffffffffffffffff1673ffffffffffffffffffffffffffffffffffffffff16815260200190815260200160002060009054906101000a900460ff16151514612bb357600080fd5b6000600d866040518082805190602001908083835b60208310612beb5780518252602082019150602081019050602083039250612bc8565b6001836020036101000a038019825116818451168082178552505050505050905001915050908152602001604051809103902060000160009054906101000a90046fffffffffffffffffffffffffffffffff166fffffffffffffffffffffffffffffffff1614612cc3576040517f08c379a000000000000000000000000000000000000000000000000000000000815260040180806020018281038252601a8152602001807f5a4b553a20436f686f727420616c72656164792065786973747300000000000081525060200191505060405180910390fd5b6000846fffffffffffffffffffffffffffffffff1611612d2e576040517f08c379a00000000000000000000000000000000000000000000000000000000081526004018080602001828103825260218152602001806154f26021913960400191505060405180910390fd5b60006040518060a00160405280866fffffffffffffffffffffffffffffffff16815260200160006fffffffffffffffffffffffffffffffff16815260200185815260200184815260200183815250905080600d876040518082805190602001908083835b60208310612db55780518252602082019150602081019050602083039250612d92565b6001836020036101000a038019825116818451168082178552505050505050905001915050908152602001604051809103902060008201518160000160006101000a8154816fffffffffffffffffffffffffffffffff02191690836fffffffffffffffffffffffffffffffff16021790555060208201518160000160106101000a8154816fffffffffffffffffffffffffffffffff02191690836fffffffffffffffffffffffffffffffff160217905550604082015181600101556060820151816002019080519060200190612e8c92919061521c565b506080820151816003019080519060200190612ea9929190615269565b50905050505050505050565b60011515600c60003373ffffffffffffffffffffffffffffffffffffffff1673ffffffffffffffffffffffffffffffffffffffff16815260200190815260200160002060009054906101000a900460ff16151514612f1257600080fd5b6000600d836040518082805190602001908083835b60208310612f4a5780518252602082019150602081019050602083039250612f27565b6001836020036101000a038019825116818451168082178552505050505050905001915050908152602001604051809103902060000160009054906101000a90046fffffffffffffffffffffffffffffffff166fffffffffffffffffffffffffffffffff1611613022576040517f08c379a00000000000000000000000000000000000000000000000000000000081526004018080602001828103825260188152602001807f5a4b553a204e6f20636f686f7274206c696d697420736574000000000000000081525060200191505060405180910390fd5b80600d836040518082805190602001908083835b602083106130595780518252602082019150602081019050602083039250613036565b6001836020036101000a0380198251168184511680821785525050505050509050019150509081526020016040518091039020600101819055505050565b6130a86130a2613dbd565b83613e93565b6130fd576040517f08c379a000000000000000000000000000000000000000000000000000000000815260040180806020018281038252603181526020018061562c6031913960400191505060405180910390fd5b61310984848484614244565b50505050565b606061311a82613da0565b61316f576040517f08c379a000000000000000000000000000000000000000000000000000000000815260040180806020018281038252602f8152602001806155dc602f913960400191505060405180910390fd5b6000600860008481526020019081526020016000208054600181600116156101000203166002900480601f0160208091040260200160405190810160405280929190818152602001828054600181600116156101000203166002900480156132185780601f106131ed57610100808354040283529160200191613218565b820191906000526020600020905b8154815290600101906020018083116131fb57829003601f168201915b5050505050905060006132296124d7565b905060008151141561323f5781925050506133db565b6000825111156133105780826040516020018083805190602001908083835b60208310613281578051825260208201915060208101905060208303925061325e565b6001836020036101000a03801982511681845116808217855250505050505090500182805190602001908083835b602083106132d257805182526020820191506020810190506020830392506132af565b6001836020036101000a03801982511681845116808217855250505050505090500192505050604051602081830303815290604052925050506133db565b8061331a856142b6565b6040516020018083805190602001908083835b60208310613350578051825260208201915060208101905060208303925061332d565b6001836020036101000a03801982511681845116808217855250505050505090500182805190602001908083835b602083106133a1578051825260208201915060208101905060208303925061337e565b6001836020036101000a03801982511681845116808217855250505050505090500192505050604051602081830303815290604052925050505b919050565b600b60205281600052604060002081805160208101820180518482526020830160208501208183528095505050505050600091509150505481565b6000600560008473ffffffffffffffffffffffffffffffffffffffff1673ffffffffffffffffffffffffffffffffffffffff16815260200190815260200160002060008373ffffffffffffffffffffffffffffffffffffffff1673ffffffffffffffffffffffffffffffffffffffff16815260200190815260200160002060009054906101000a900460ff16905092915050565b6134b7613dbd565b73ffffffffffffffffffffffffffffffffffffffff166134d56127be565b73ffffffffffffffffffffffffffffffffffffffff161461355e576040517f08c379a00000000000000000000000000000000000000000000000000000000081526004018080602001828103825260208152602001807f4f776e61626c653a2063616c6c6572206973206e6f7420746865206f776e657281525060200191505060405180910390fd5b600073ffffffffffffffffffffffffffffffffffffffff168173ffffffffffffffffffffffffffffffffffffffff1614156135e4576040517f08c379a00000000000000000000000000000000000000000000000000000000081526004018080602001828103825260268152602001806153a96026913960400191505060405180910390fd5b8073ffffffffffffffffffffffffffffffffffffffff16600a60009054906101000a900473ffffffffffffffffffffffffffffffffffffffff1673ffffffffffffffffffffffffffffffffffffffff167f8be0079c531659141344cd1fd0a4f28419497f9722a3daafe3b4186f6b6457e060405160405180910390a380600a60006101000a81548173ffffffffffffffffffffffffffffffffffffffff021916908373ffffffffffffffffffffffffffffffffffffffff16021790555050565b60008082905060005b855181101561374b5760008682815181106136c457fe5b6020026020010151905080831161370b578281604051602001808381526020018281526020019250505060405160208183030381529060405280519060200120925061373d565b808360405160200180838152602001828152602001925050506040516020818303038152906040528051906020012092505b5080806001019150506136ad565b508381149150509392505050565b60008484600d826040518082805190602001908083835b602083106137935780518252602082019150602081019050602083039250613770565b6001836020036101000a038019825116818451168082178552505050505050905001915050908152602001604051809103902060000160009054906101000a90046fffffffffffffffffffffffffffffffff166fffffffffffffffffffffffffffffffff16600d836040518082805190602001908083835b6020831061382e578051825260208201915060208101905060208303925061380b565b6001836020036101000a038019825116818451168082178552505050505050905001915050908152602001604051809103902060000160109054906101000a90046fffffffffffffffffffffffffffffffff166fffffffffffffffffffffffffffffffff16106138e9576040517f08c379a000000000000000000000000000000000000000000000000000000000815260040180806020018281038252602181526020018061556b6021913960400191505060405180910390fd5b6000600b60008373ffffffffffffffffffffffffffffffffffffffff1673ffffffffffffffffffffffffffffffffffffffff168152602001908152602001600020836040518082805190602001908083835b6020831061395e578051825260208201915060208101905060208303925061393b565b6001836020036101000a038019825116818451168082178552505050505050905001915050908152602001604051809103902054146139e8576040517f08c379a00000000000000000000000000000000000000000000000000000000081526004018080602001828103825260278152602001806155b56027913960400191505060405180910390fd5b6000600d886040518082805190602001908083835b60208310613a2057805182526020820191506020810190506020830392506139fd565b6001836020036101000a038019825116818451168082178552505050505050905001915050908152602001604051809103902060000160109054906101000a90046fffffffffffffffffffffffffffffffff1690506000600f866040516020018083805460018160011615610100020316600290048015613ad85780601f10613ab6576101008083540402835291820191613ad8565b820191906000526020600020905b815481529060010190602001808311613ac4575b505082805190602001908083835b60208310613b095780518252602082019150602081019050602083039250613ae6565b6001836020036101000a0380198251168184511680821785525050505050509050019250505060405160208183030381529060405290506000613b4c600e6143fd565b905080600b60008b73ffffffffffffffffffffffffffffffffffffffff1673ffffffffffffffffffffffffffffffffffffffff1681526020019081526020016000208b6040518082805190602001908083835b60208310613bc25780518252602082019150602081019050602083039250613b9f565b6001836020036101000a038019825116818451168082178552505050505050905001915050908152602001604051809103902081905550613c03898261440b565b896040518082805190602001908083835b60208310613c375780518252602082019150602081019050602083039250613c14565b6001836020036101000a03801982511681845116808217855250505050505090500191505060405180910390208973ffffffffffffffffffffffffffffffffffffffff167f436ed5ad57b88689854d2b756b16ffc1e461f71b9c88bc4316a6b58e9d7fc80985848c60405180846fffffffffffffffffffffffffffffffff1681526020018381526020018215158152602001935050505060405180910390a3613ce08183614429565b60018301600d8b6040518082805190602001908083835b60208310613d1a5780518252602082019150602081019050602083039250613cf7565b6001836020036101000a038019825116818451168082178552505050505050905001915050908152602001604051809103902060000160106101000a8154816fffffffffffffffffffffffffffffffff02191690836fffffffffffffffffffffffffffffffff160217905550613d90600e6144b3565b8095505050505050949350505050565b6000613db68260026144c990919063ffffffff16565b9050919050565b600033905090565b816004600083815260200190815260200160002060006101000a81548173ffffffffffffffffffffffffffffffffffffffff021916908373ffffffffffffffffffffffffffffffffffffffff160217905550808273ffffffffffffffffffffffffffffffffffffffff16613e3883612396565b73ffffffffffffffffffffffffffffffffffffffff167f8c5be1e5ebec7d5bd14f71427d1e84f3dd0314c0f7b2291e5b200ac8c7c3b92560405160405180910390a45050565b6000613e8c826000016144e3565b9050919050565b6000613e9e82613da0565b613ef3576040517f08c379a000000000000000000000000000000000000000000000000000000000815260040180806020018281038252602c815260200180615419602c913960400191505060405180910390fd5b6000613efe83612396565b90508073ffffffffffffffffffffffffffffffffffffffff168473ffffffffffffffffffffffffffffffffffffffff161480613f6d57508373ffffffffffffffffffffffffffffffffffffffff16613f5584611b92565b73ffffffffffffffffffffffffffffffffffffffff16145b80613f7e5750613f7d818561341b565b5b91505092915050565b8273ffffffffffffffffffffffffffffffffffffffff16613fa782612396565b73ffffffffffffffffffffffffffffffffffffffff1614614013576040517f08c379a000000000000000000000000000000000000000000000000000000000815260040180806020018281038252602981526020018061558c6029913960400191505060405180910390fd5b600073ffffffffffffffffffffffffffffffffffffffff168273ffffffffffffffffffffffffffffffffffffffff161415614099576040517f08c379a00000000000000000000000000000000000000000000000000000000081526004018080602001828103825260248152602001806153cf6024913960400191505060405180910390fd5b6140a48383836144f4565b6140af600082613dc5565b61410081600160008673ffffffffffffffffffffffffffffffffffffffff1673ffffffffffffffffffffffffffffffffffffffff1681526020019081526020016000206145f490919063ffffffff16565b5061415281600160008573ffffffffffffffffffffffffffffffffffffffff1673ffffffffffffffffffffffffffffffffffffffff16815260200190815260200160002061460e90919063ffffffff16565b50614169818360026146289092919063ffffffff16565b50808273ffffffffffffffffffffffffffffffffffffffff168473ffffffffffffffffffffffffffffffffffffffff167fddf252ad1be2c89b69c2b068fc378daa952ba7f163c4a11628f55a4df523b3ef60405160405180910390a4505050565b60006141d9836000018361465d565b60001c905092915050565b6000806000806141f786600001866146e0565b915091508160001c8160001c9350935050509250929050565b6000614223846000018460001b84614779565b60001c90509392505050565b600061423d8260000161486f565b9050919050565b61424f848484613f87565b61425b84848484614880565b6142b0576040517f08c379a00000000000000000000000000000000000000000000000000000000081526004018080602001828103825260328152602001806153776032913960400191505060405180910390fd5b50505050565b606060008214156142fe576040518060400160405280600181526020017f300000000000000000000000000000000000000000000000000000000000000081525090506143f8565b600082905060005b60008214614328578080600101915050600a828161432057fe5b049150614306565b60008167ffffffffffffffff8111801561434157600080fd5b506040519080825280601f01601f1916602001820160405280156143745781602001600182028036833780820191505090505b50905060006001830390508593505b600084146143f057600a848161439557fe5b0660300160f81b828280600190039350815181106143af57fe5b60200101907effffffffffffffffffffffffffffffffffffffffffffffffffffffffffffff1916908160001a905350600a84816143e857fe5b049350614383565b819450505050505b919050565b600081600001549050919050565b614425828260405180602001604052806000815250614a99565b5050565b61443282613da0565b614487576040517f08c379a000000000000000000000000000000000000000000000000000000000815260040180806020018281038252602c81526020018061553f602c913960400191505060405180910390fd5b806008600084815260200190815260200160002090805190602001906144ae929190615269565b505050565b6001816000016000828254019250508190555050565b60006144db836000018360001b614b0a565b905092915050565b600081600001805490509050919050565b600073ffffffffffffffffffffffffffffffffffffffff168373ffffffffffffffffffffffffffffffffffffffff16148061455b5750600073ffffffffffffffffffffffffffffffffffffffff168273ffffffffffffffffffffffffffffffffffffffff16145b806145725750601060009054906101000a900460ff165b6145e4576040517f08c379a00000000000000000000000000000000000000000000000000000000081526004018080602001828103825260178152602001807f4e6f7420616c6c6f77656420746f207472616e7366657200000000000000000081525060200191505060405180910390fd5b6145ef838383614b2d565b505050565b6000614606836000018360001b614b32565b905092915050565b6000614620836000018360001b614c1a565b905092915050565b6000614654846000018460001b8473ffffffffffffffffffffffffffffffffffffffff1660001b614c8a565b90509392505050565b6000818360000180549050116146be576040517f08c379a00000000000000000000000000000000000000000000000000000000081526004018080602001828103825260228152602001806153326022913960400191505060405180910390fd5b8260000182815481106146cd57fe5b9060005260206000200154905092915050565b60008082846000018054905011614742576040517f08c379a00000000000000000000000000000000000000000000000000000000081526004018080602001828103825260228152602001806154d06022913960400191505060405180910390fd5b600084600001848154811061475357fe5b906000526020600020906002020190508060000154816001015492509250509250929050565b60008084600101600085815260200190815260200160002054905060008114158390614840576040517f08c379a00000000000000000000000000000000000000000000000000000000081526004018080602001828103825283818151815260200191508051906020019080838360005b838110156148055780820151818401526020810190506147ea565b50505050905090810190601f1680156148325780820380516001836020036101000a031916815260200191505b509250505060405180910390fd5b5084600001600182038154811061485357fe5b9060005260206000209060020201600101549150509392505050565b600081600001805490509050919050565b60006148a18473ffffffffffffffffffffffffffffffffffffffff16614d66565b6148ae5760019050614a91565b6000614a1863150b7a0260e01b6148c3613dbd565b888787604051602401808573ffffffffffffffffffffffffffffffffffffffff1681526020018473ffffffffffffffffffffffffffffffffffffffff16815260200183815260200180602001828103825283818151815260200191508051906020019080838360005b8381101561494757808201518184015260208101905061492c565b50505050905090810190601f1680156149745780820380516001836020036101000a031916815260200191505b5095505050505050604051602081830303815290604052907bffffffffffffffffffffffffffffffffffffffffffffffffffffffff19166020820180517bffffffffffffffffffffffffffffffffffffffffffffffffffffffff8381831617835250505050604051806060016040528060328152602001615377603291398773ffffffffffffffffffffffffffffffffffffffff16614d799092919063ffffffff16565b90506000818060200190516020811015614a3157600080fd5b8101908080519060200190929190505050905063150b7a0260e01b7bffffffffffffffffffffffffffffffffffffffffffffffffffffffff1916817bffffffffffffffffffffffffffffffffffffffffffffffffffffffff191614925050505b949350505050565b614aa38383614d91565b614ab06000848484614880565b614b05576040517f08c379a00000000000000000000000000000000000000000000000000000000081526004018080602001828103825260328152602001806153776032913960400191505060405180910390fd5b505050565b600080836001016000848152602001908152602001600020541415905092915050565b505050565b60008083600101600084815260200190815260200160002054905060008114614c0e5760006001820390506000600186600001805490500390506000866000018281548110614b7d57fe5b9060005260206000200154905080876000018481548110614b9a57fe5b9060005260206000200181905550600183018760010160008381526020019081526020016000208190555086600001805480614bd257fe5b60019003818190600052602060002001600090559055866001016000878152602001908152602001600020600090556001945050505050614c14565b60009150505b92915050565b6000614c268383614f85565b614c7f578260000182908060018154018082558091505060019003906000526020600020016000909190919091505582600001805490508360010160008481526020019081526020016000208190555060019050614c84565b600090505b92915050565b6000808460010160008581526020019081526020016000205490506000811415614d3157846000016040518060400160405280868152602001858152509080600181540180825580915050600190039060005260206000209060020201600090919091909150600082015181600001556020820151816001015550508460000180549050856001016000868152602001908152602001600020819055506001915050614d5f565b82856000016001830381548110614d4457fe5b90600052602060002090600202016001018190555060009150505b9392505050565b600080823b905060008111915050919050565b6060614d888484600085614fa8565b90509392505050565b600073ffffffffffffffffffffffffffffffffffffffff168273ffffffffffffffffffffffffffffffffffffffff161415614e34576040517f08c379a00000000000000000000000000000000000000000000000000000000081526004018080602001828103825260208152602001807f4552433732313a206d696e7420746f20746865207a65726f206164647265737381525060200191505060405180910390fd5b614e3d81613da0565b15614eb0576040517f08c379a000000000000000000000000000000000000000000000000000000000815260040180806020018281038252601c8152602001807f4552433732313a20746f6b656e20616c7265616479206d696e7465640000000081525060200191505060405180910390fd5b614ebc600083836144f4565b614f0d81600160008573ffffffffffffffffffffffffffffffffffffffff1673ffffffffffffffffffffffffffffffffffffffff16815260200190815260200160002061460e90919063ffffffff16565b50614f24818360026146289092919063ffffffff16565b50808273ffffffffffffffffffffffffffffffffffffffff16600073ffffffffffffffffffffffffffffffffffffffff167fddf252ad1be2c89b69c2b068fc378daa952ba7f163c4a11628f55a4df523b3ef60405160405180910390a45050565b600080836001016000848152602001908152602001600020541415905092915050565b606082471015615003576040517f08c379a00000000000000000000000000000000000000000000000000000000081526004018080602001828103825260268152602001806153f36026913960400191505060405180910390fd5b61500c85614d66565b61507e576040517f08c379a000000000000000000000000000000000000000000000000000000000815260040180806020018281038252601d8152602001807f416464726573733a2063616c6c20746f206e6f6e2d636f6e747261637400000081525060200191505060405180910390fd5b6000808673ffffffffffffffffffffffffffffffffffffffff1685876040518082805190602001908083835b602083106150cd57805182526020820191506020810190506020830392506150aa565b6001836020036101000a03801982511681845116808217855250505050505090500191505060006040518083038185875af1925050503d806000811461512f576040519150601f19603f3d011682016040523d82523d6000602084013e615134565b606091505b5091509150615144828286615150565b92505050949350505050565b6060831561516057829050615215565b6000835111156151735782518084602001fd5b816040517f08c379a00000000000000000000000000000000000000000000000000000000081526004018080602001828103825283818151815260200191508051906020019080838360005b838110156151da5780820151818401526020810190506151bf565b50505050905090810190601f1680156152075780820380516001836020036101000a031916815260200191505b509250505060405180910390fd5b9392505050565b828054828255906000526020600020908101928215615258579160200282015b8281111561525757825182559160200191906001019061523c565b5b50905061526591906152f7565b5090565b828054600181600116156101000203166002900490600052602060002090601f01602090048101928261529f57600085556152e6565b82601f106152b857805160ff19168380011785556152e6565b828001600101855582156152e6579182015b828111156152e55782518255916020019190600101906152ca565b5b5090506152f39190615314565b5090565b5b808211156153105760008160009055506001016152f8565b5090565b5b8082111561532d576000816000905550600101615315565b509056fe456e756d657261626c655365743a20696e646578206f7574206f6620626f756e64735a4b553a2061646472657373206e6f7420656c696769626c6520666f7220636c61696d4552433732313a207472616e7366657220746f206e6f6e20455243373231526563656976657220696d706c656d656e7465724f776e61626c653a206e6577206f776e657220697320746865207a65726f20616464726573734552433732313a207472616e7366657220746f20746865207a65726f2061646472657373416464726573733a20696e73756666696369656e742062616c616e636520666f722063616c6c4552433732313a206f70657261746f7220717565727920666f72206e6f6e6578697374656e7420746f6b656e4552433732313a20617070726f76652063616c6c6572206973206e6f74206f776e6572206e6f7220617070726f76656420666f7220616c6c4552433732313a2062616c616e636520717565727920666f7220746865207a65726f20616464726573734552433732313a206f776e657220717565727920666f72206e6f6e6578697374656e7420746f6b656e456e756d657261626c654d61703a20696e646578206f7574206f6620626f756e64735a4b553a204c696d6974206d7573742062652067726561746572207468616e20304552433732313a20617070726f76656420717565727920666f72206e6f6e6578697374656e7420746f6b656e4552433732314d657461646174613a2055524920736574206f66206e6f6e6578697374656e7420746f6b656e5a4b553a206d617820746f6b656e732069737375656420666f7220636f686f72744552433732313a207472616e73666572206f6620746f6b656e2074686174206973206e6f74206f776e5a4b553a20616464726573732068617320616c726561647920636c61696d656420746f6b656e2e4552433732314d657461646174613a2055524920717565727920666f72206e6f6e6578697374656e7420746f6b656e4552433732313a20617070726f76616c20746f2063757272656e74206f776e65724552433732313a207472616e736665722063616c6c6572206973206e6f74206f776e6572206e6f7220617070726f766564a26469706673582212201b0531d7434865d1f3e55ebd0a4b7762e10e3f547f8836958fd546f626f53e9564736f6c63430007060033",
  "linkReferences": {},
  "deployedLinkReferences": {}
}