{
  "_format": "hh-sol-artifact-1",
  "contractName": "ZKUNFT",
  "sourceName": "contracts/ZKUNFT.sol",
  "abi": [
    {
      "inputs": [
        {
          "internalType": "string",
          "name": "_contractBaseURI",
          "type": "string"
        }
      ],
      "stateMutability": "nonpayable",
      "type": "constructor"
    },
    {
      "anonymous": false,
      "inputs": [
        {
          "indexed": true,
          "internalType": "address",
          "name": "owner",
          "type": "address"
        },
        {
          "indexed": true,
          "internalType": "address",
          "name": "approved",
          "type": "address"
        },
        {
          "indexed": true,
          "internalType": "uint256",
          "name": "tokenId",
          "type": "uint256"
        }
      ],
      "name": "Approval",
      "type": "event"
    },
    {
      "anonymous": false,
      "inputs": [
        {
          "indexed": true,
          "internalType": "address",
          "name": "owner",
          "type": "address"
        },
        {
          "indexed": true,
          "internalType": "address",
          "name": "operator",
          "type": "address"
        },
        {
          "indexed": false,
          "internalType": "bool",
          "name": "approved",
          "type": "bool"
        }
      ],
      "name": "ApprovalForAll",
      "type": "event"
    },
    {
      "anonymous": false,
      "inputs": [
        {
          "indexed": true,
          "internalType": "address",
          "name": "_receiver",
          "type": "address"
        },
        {
          "indexed": true,
          "internalType": "string",
          "name": "_cohortId",
          "type": "string"
        },
        {
          "indexed": false,
          "internalType": "uint128",
          "name": "_cohortIndex",
          "type": "uint128"
        },
        {
          "indexed": false,
          "internalType": "uint256",
          "name": "_contractIndex",
          "type": "uint256"
        },
        {
          "indexed": false,
          "internalType": "bool",
          "name": "_isAdmin",
          "type": "bool"
        }
      ],
      "name": "Claim",
      "type": "event"
    },
    {
      "anonymous": false,
      "inputs": [
        {
          "indexed": true,
          "internalType": "address",
          "name": "previousOwner",
          "type": "address"
        },
        {
          "indexed": true,
          "internalType": "address",
          "name": "newOwner",
          "type": "address"
        }
      ],
      "name": "OwnershipTransferred",
      "type": "event"
    },
    {
      "anonymous": false,
      "inputs": [
        {
          "indexed": true,
          "internalType": "address",
          "name": "from",
          "type": "address"
        },
        {
          "indexed": true,
          "internalType": "address",
          "name": "to",
          "type": "address"
        },
        {
          "indexed": true,
          "internalType": "uint256",
          "name": "tokenId",
          "type": "uint256"
        }
      ],
      "name": "Transfer",
      "type": "event"
    },
    {
      "inputs": [
        {
          "internalType": "string",
          "name": "_cohortId",
          "type": "string"
        }
      ],
      "name": "_getCohortDetails",
      "outputs": [
        {
          "internalType": "bytes32[]",
          "name": "",
          "type": "bytes32[]"
        },
        {
          "internalType": "bytes32",
          "name": "",
          "type": "bytes32"
        }
      ],
      "stateMutability": "view",
      "type": "function"
    },
    {
      "inputs": [
        {
          "internalType": "string",
          "name": "_cohortId",
          "type": "string"
        },
        {
          "internalType": "bytes32[]",
          "name": "_proof",
          "type": "bytes32[]"
        },
        {
          "internalType": "address",
          "name": "to",
          "type": "address"
        }
      ],
      "name": "adminClaimToken",
      "outputs": [
        {
          "internalType": "uint256",
          "name": "",
          "type": "uint256"
        }
      ],
      "stateMutability": "nonpayable",
      "type": "function"
    },
    {
      "inputs": [
        {
          "internalType": "address",
          "name": "to",
          "type": "address"
        },
        {
          "internalType": "uint256",
          "name": "tokenId",
          "type": "uint256"
        }
      ],
      "name": "approve",
      "outputs": [],
      "stateMutability": "nonpayable",
      "type": "function"
    },
    {
      "inputs": [
        {
          "internalType": "address",
          "name": "owner",
          "type": "address"
        }
      ],
      "name": "balanceOf",
      "outputs": [
        {
          "internalType": "uint256",
          "name": "",
          "type": "uint256"
        }
      ],
      "stateMutability": "view",
      "type": "function"
    },
    {
      "inputs": [],
      "name": "baseURI",
      "outputs": [
        {
          "internalType": "string",
          "name": "",
          "type": "string"
        }
      ],
      "stateMutability": "view",
      "type": "function"
    },
    {
      "inputs": [
        {
          "internalType": "string",
          "name": "_cohortId",
          "type": "string"
        },
        {
          "internalType": "bytes32[]",
          "name": "_proof",
          "type": "bytes32[]"
        }
      ],
      "name": "claimToken",
      "outputs": [
        {
          "internalType": "uint256",
          "name": "",
          "type": "uint256"
        }
      ],
      "stateMutability": "nonpayable",
      "type": "function"
    },
    {
      "inputs": [
        {
          "internalType": "address",
          "name": "",
          "type": "address"
        },
        {
          "internalType": "string",
          "name": "",
          "type": "string"
        }
      ],
      "name": "claimed",
      "outputs": [
        {
          "internalType": "uint256",
          "name": "",
          "type": "uint256"
        }
      ],
      "stateMutability": "view",
      "type": "function"
    },
    {
      "inputs": [
        {
          "internalType": "string",
          "name": "",
          "type": "string"
        }
      ],
      "name": "cohorts",
      "outputs": [
        {
          "internalType": "uint128",
          "name": "limit",
          "type": "uint128"
        },
        {
          "internalType": "uint128",
          "name": "tokenMinted",
          "type": "uint128"
        },
        {
          "internalType": "bytes32",
          "name": "merkleRoot",
          "type": "bytes32"
        }
      ],
      "stateMutability": "view",
      "type": "function"
    },
    {
      "inputs": [
        {
          "internalType": "string",
          "name": "_cohortId",
          "type": "string"
        },
        {
          "internalType": "uint128",
          "name": "_limit",
          "type": "uint128"
        },
        {
          "internalType": "bytes32",
          "name": "_merkleRoot",
          "type": "bytes32"
        },
        {
          "internalType": "bytes32[]",
          "name": "_whitelistedAddresses",
          "type": "bytes32[]"
        }
      ],
      "name": "createCohort",
      "outputs": [],
      "stateMutability": "nonpayable",
      "type": "function"
    },
    {
      "inputs": [
        {
          "internalType": "uint256",
          "name": "tokenId",
          "type": "uint256"
        }
      ],
      "name": "getApproved",
      "outputs": [
        {
          "internalType": "address",
          "name": "",
          "type": "address"
        }
      ],
      "stateMutability": "view",
      "type": "function"
    },
    {
      "inputs": [
        {
          "internalType": "address",
          "name": "owner",
          "type": "address"
        },
        {
          "internalType": "address",
          "name": "operator",
          "type": "address"
        }
      ],
      "name": "isApprovedForAll",
      "outputs": [
        {
          "internalType": "bool",
          "name": "",
          "type": "bool"
        }
      ],
      "stateMutability": "view",
      "type": "function"
    },
    {
      "inputs": [],
      "name": "name",
      "outputs": [
        {
          "internalType": "string",
          "name": "",
          "type": "string"
        }
      ],
      "stateMutability": "view",
      "type": "function"
    },
    {
      "inputs": [],
      "name": "owner",
      "outputs": [
        {
          "internalType": "address",
          "name": "",
          "type": "address"
        }
      ],
      "stateMutability": "view",
      "type": "function"
    },
    {
      "inputs": [
        {
          "internalType": "uint256",
          "name": "tokenId",
          "type": "uint256"
        }
      ],
      "name": "ownerOf",
      "outputs": [
        {
          "internalType": "address",
          "name": "",
          "type": "address"
        }
      ],
      "stateMutability": "view",
      "type": "function"
    },
    {
      "inputs": [],
      "name": "renounceOwnership",
      "outputs": [],
      "stateMutability": "nonpayable",
      "type": "function"
    },
    {
      "inputs": [
        {
          "internalType": "address",
          "name": "from",
          "type": "address"
        },
        {
          "internalType": "address",
          "name": "to",
          "type": "address"
        },
        {
          "internalType": "uint256",
          "name": "tokenId",
          "type": "uint256"
        }
      ],
      "name": "safeTransferFrom",
      "outputs": [],
      "stateMutability": "nonpayable",
      "type": "function"
    },
    {
      "inputs": [
        {
          "internalType": "address",
          "name": "from",
          "type": "address"
        },
        {
          "internalType": "address",
          "name": "to",
          "type": "address"
        },
        {
          "internalType": "uint256",
          "name": "tokenId",
          "type": "uint256"
        },
        {
          "internalType": "bytes",
          "name": "_data",
          "type": "bytes"
        }
      ],
      "name": "safeTransferFrom",
      "outputs": [],
      "stateMutability": "nonpayable",
      "type": "function"
    },
    {
      "inputs": [
        {
          "internalType": "bool",
          "name": "_allowsTransfers",
          "type": "bool"
        }
      ],
      "name": "setAllowsTransfers",
      "outputs": [],
      "stateMutability": "nonpayable",
      "type": "function"
    },
    {
      "inputs": [
        {
          "internalType": "address",
          "name": "operator",
          "type": "address"
        },
        {
          "internalType": "bool",
          "name": "approved",
          "type": "bool"
        }
      ],
      "name": "setApprovalForAll",
      "outputs": [],
      "stateMutability": "nonpayable",
      "type": "function"
    },
    {
      "inputs": [
        {
          "internalType": "string",
          "name": "_cohortId",
          "type": "string"
        },
        {
          "internalType": "bytes32",
          "name": "_merkleRoot",
          "type": "bytes32"
        }
      ],
      "name": "setMerkleRoot",
      "outputs": [],
      "stateMutability": "nonpayable",
      "type": "function"
    },
    {
      "inputs": [
        {
          "internalType": "string",
          "name": "_cohortId",
          "type": "string"
        },
        {
          "internalType": "bytes32[]",
          "name": "_whitelistedAddresses",
          "type": "bytes32[]"
        },
        {
          "internalType": "uint128",
          "name": "_limit",
          "type": "uint128"
        }
      ],
      "name": "setWhitelist",
      "outputs": [],
      "stateMutability": "nonpayable",
      "type": "function"
    },
    {
      "inputs": [
        {
          "internalType": "bytes4",
          "name": "interfaceId",
          "type": "bytes4"
        }
      ],
      "name": "supportsInterface",
      "outputs": [
        {
          "internalType": "bool",
          "name": "",
          "type": "bool"
        }
      ],
      "stateMutability": "view",
      "type": "function"
    },
    {
      "inputs": [],
      "name": "symbol",
      "outputs": [
        {
          "internalType": "string",
          "name": "",
          "type": "string"
        }
      ],
      "stateMutability": "view",
      "type": "function"
    },
    {
      "inputs": [
        {
          "internalType": "uint256",
          "name": "index",
          "type": "uint256"
        }
      ],
      "name": "tokenByIndex",
      "outputs": [
        {
          "internalType": "uint256",
          "name": "",
          "type": "uint256"
        }
      ],
      "stateMutability": "view",
      "type": "function"
    },
    {
      "inputs": [
        {
          "internalType": "address",
          "name": "owner",
          "type": "address"
        },
        {
          "internalType": "uint256",
          "name": "index",
          "type": "uint256"
        }
      ],
      "name": "tokenOfOwnerByIndex",
      "outputs": [
        {
          "internalType": "uint256",
          "name": "",
          "type": "uint256"
        }
      ],
      "stateMutability": "view",
      "type": "function"
    },
    {
      "inputs": [
        {
          "internalType": "uint256",
          "name": "tokenId",
          "type": "uint256"
        }
      ],
      "name": "tokenURI",
      "outputs": [
        {
          "internalType": "string",
          "name": "",
          "type": "string"
        }
      ],
      "stateMutability": "view",
      "type": "function"
    },
    {
      "inputs": [],
      "name": "totalSupply",
      "outputs": [
        {
          "internalType": "uint256",
          "name": "",
          "type": "uint256"
        }
      ],
      "stateMutability": "view",
      "type": "function"
    },
    {
      "inputs": [
        {
          "internalType": "address",
          "name": "from",
          "type": "address"
        },
        {
          "internalType": "address",
          "name": "to",
          "type": "address"
        },
        {
          "internalType": "uint256",
          "name": "tokenId",
          "type": "uint256"
        }
      ],
      "name": "transferFrom",
      "outputs": [],
      "stateMutability": "nonpayable",
      "type": "function"
    },
    {
      "inputs": [
        {
          "internalType": "address",
          "name": "newOwner",
          "type": "address"
        }
      ],
      "name": "transferOwnership",
      "outputs": [],
      "stateMutability": "nonpayable",
      "type": "function"
    },
    {
      "inputs": [
        {
          "internalType": "address",
          "name": "_admin",
          "type": "address"
        },
        {
          "internalType": "bool",
          "name": "isAdmin",
          "type": "bool"
        }
      ],
      "name": "updateAdmin",
      "outputs": [],
      "stateMutability": "nonpayable",
      "type": "function"
    }
  ],
  "bytecode": "0x60806040526000601060006101000a81548160ff0219169083151502179055503480156200002c57600080fd5b506040516200575b3803806200575b833981810160405260208110156200005257600080fd5b81019080805160405193929190846401000000008211156200007357600080fd5b838201915060208201858111156200008a57600080fd5b8251866001820283011164010000000082111715620000a857600080fd5b8083526020830192505050908051906020019080838360005b83811015620000de578082015181840152602081019050620000c1565b50505050905090810190601f1680156200010c5780820380516001836020036101000a031916815260200191505b506040525050506040518060400160405280600381526020017f7a6b7500000000000000000000000000000000000000000000000000000000008152506040518060400160405280600381526020017f5a4b550000000000000000000000000000000000000000000000000000000000815250620001976301ffc9a760e01b6200033c60201b60201c565b8160069080519060200190620001af9291906200044d565b508060079080519060200190620001c89291906200044d565b50620001e16380ac58cd60e01b6200033c60201b60201c565b620001f9635b5e139f60e01b6200033c60201b60201c565b6200021163780e9d6360e01b6200033c60201b60201c565b50506000620002256200044560201b60201c565b905080600a60006101000a81548173ffffffffffffffffffffffffffffffffffffffff021916908373ffffffffffffffffffffffffffffffffffffffff1602179055508073ffffffffffffffffffffffffffffffffffffffff16600073ffffffffffffffffffffffffffffffffffffffff167f8be0079c531659141344cd1fd0a4f28419497f9722a3daafe3b4186f6b6457e060405160405180910390a3506001600c60003373ffffffffffffffffffffffffffffffffffffffff1673ffffffffffffffffffffffffffffffffffffffff16815260200190815260200160002060006101000a81548160ff02191690831515021790555080600f9080519060200190620003349291906200044d565b505062000503565b63ffffffff60e01b817bffffffffffffffffffffffffffffffffffffffffffffffffffffffff19161415620003d9576040517f08c379a000000000000000000000000000000000000000000000000000000000815260040180806020018281038252601c8152602001807f4552433136353a20696e76616c696420696e746572666163652069640000000081525060200191505060405180910390fd5b6001600080837bffffffffffffffffffffffffffffffffffffffffffffffffffffffff19167bffffffffffffffffffffffffffffffffffffffffffffffffffffffff1916815260200190815260200160002060006101000a81548160ff02191690831515021790555050565b600033905090565b828054600181600116156101000203166002900490600052602060002090601f016020900481019282620004855760008555620004d1565b82601f10620004a057805160ff1916838001178555620004d1565b82800160010185558215620004d1579182015b82811115620004d0578251825591602001919060010190620004b3565b5b509050620004e09190620004e4565b5090565b5b80821115620004ff576000816000905550600101620004e5565b5090565b61524880620005136000396000f3fe608060405234801561001057600080fd5b50600436106101da5760003560e01c80636c0360eb11610104578063b5294ee6116100a2578063dbc1910211610071578063dbc1910214611099578063e4d515b414611188578063e985e9c51461130b578063f2fde38b14611385576101da565b8063b5294ee614610cb3578063b7aafa8714610e28578063b88d4fde14610eed578063c87b56dd14610ff2576101da565b80638da5cb5b116100de5780638da5cb5b14610aab5780638ffc391a14610adf57806395d89b4114610be0578063a22cb46514610c63576101da565b80636c0360eb146109c657806370a0823114610a49578063715018a614610aa1576101da565b80632f745c591161017c578063509ac0e51161014b578063509ac0e5146107d75780635e51d31a146108ee5780636352211e1461091e578063670a6fd914610976576101da565b80632f745c5914610562578063345d6818146105c457806342842e0e146107275780634f6ccce714610795576101da565b8063081812fc116101b8578063081812fc14610430578063095ea7b31461048857806318160ddd146104d657806323b872dd146104f4576101da565b806301ffc9a7146101df57806305dbb5581461024257806306fdde03146103ad575b600080fd5b61022a600480360360208110156101f557600080fd5b8101908080357bffffffffffffffffffffffffffffffffffffffffffffffffffffffff191690602001909291905050506113c9565b60405180821515815260200191505060405180910390f35b6103ab6004803603606081101561025857600080fd5b810190808035906020019064010000000081111561027557600080fd5b82018360208201111561028757600080fd5b803590602001918460018302840111640100000000831117156102a957600080fd5b91908080601f016020809104026020016040519081016040528093929190818152602001838380828437600081840152601f19601f8201169050808301925050505050505091929192908035906020019064010000000081111561030c57600080fd5b82018360208201111561031e57600080fd5b8035906020019184602083028401116401000000008311171561034057600080fd5b919080806020026020016040519081016040528093929190818152602001838360200280828437600081840152601f19601f82011690508083019250505050505050919291929080356fffffffffffffffffffffffffffffffff169060200190929190505050611430565b005b6103b56116c6565b6040518080602001828103825283818151815260200191508051906020019080838360005b838110156103f55780820151818401526020810190506103da565b50505050905090810190601f1680156104225780820380516001836020036101000a031916815260200191505b509250505060405180910390f35b61045c6004803603602081101561044657600080fd5b8101908080359060200190929190505050611768565b604051808273ffffffffffffffffffffffffffffffffffffffff16815260200191505060405180910390f35b6104d46004803603604081101561049e57600080fd5b81019080803573ffffffffffffffffffffffffffffffffffffffff16906020019092919080359060200190929190505050611803565b005b6104de611947565b6040518082815260200191505060405180910390f35b6105606004803603606081101561050a57600080fd5b81019080803573ffffffffffffffffffffffffffffffffffffffff169060200190929190803573ffffffffffffffffffffffffffffffffffffffff16906020019092919080359060200190929190505050611958565b005b6105ae6004803603604081101561057857600080fd5b81019080803573ffffffffffffffffffffffffffffffffffffffff169060200190929190803590602001909291905050506119ce565b6040518082815260200191505060405180910390f35b610711600480360360408110156105da57600080fd5b81019080803590602001906401000000008111156105f757600080fd5b82018360208201111561060957600080fd5b8035906020019184600183028401116401000000008311171561062b57600080fd5b91908080601f016020809104026020016040519081016040528093929190818152602001838380828437600081840152601f19601f8201169050808301925050505050505091929192908035906020019064010000000081111561068e57600080fd5b8201836020820111156106a057600080fd5b803590602001918460208302840111640100000000831117156106c257600080fd5b919080806020026020016040519081016040528093929190818152602001838360200280828437600081840152601f19601f820116905080830192505050505050509192919290505050611a29565b6040518082815260200191505060405180910390f35b6107936004803603606081101561073d57600080fd5b81019080803573ffffffffffffffffffffffffffffffffffffffff169060200190929190803573ffffffffffffffffffffffffffffffffffffffff16906020019092919080359060200190929190505050611c67565b005b6107c1600480360360208110156107ab57600080fd5b8101908080359060200190929190505050611c87565b6040518082815260200191505060405180910390f35b610890600480360360208110156107ed57600080fd5b810190808035906020019064010000000081111561080a57600080fd5b82018360208201111561081c57600080fd5b8035906020019184600183028401116401000000008311171561083e57600080fd5b91908080601f016020809104026020016040519081016040528093929190818152602001838380828437600081840152601f19601f820116905080830192505050505050509192919290505050611caa565b6040518080602001838152602001828103825284818151815260200191508051906020019060200280838360005b838110156108d95780820151818401526020810190506108be565b50505050905001935050505060405180910390f35b61091c6004803603602081101561090457600080fd5b81019080803515159060200190929190505050611de2565b005b61094a6004803603602081101561093457600080fd5b8101908080359060200190929190505050611e5c565b604051808273ffffffffffffffffffffffffffffffffffffffff16815260200191505060405180910390f35b6109c46004803603604081101561098c57600080fd5b81019080803573ffffffffffffffffffffffffffffffffffffffff169060200190929190803515159060200190929190505050611e93565b005b6109ce611f9d565b6040518080602001828103825283818151815260200191508051906020019080838360005b83811015610a0e5780820151818401526020810190506109f3565b50505050905090810190601f168015610a3b5780820380516001836020036101000a031916815260200191505b509250505060405180910390f35b610a8b60048036036020811015610a5f57600080fd5b81019080803573ffffffffffffffffffffffffffffffffffffffff16906020019092919050505061203f565b6040518082815260200191505060405180910390f35b610aa9612114565b005b610ab3612284565b604051808273ffffffffffffffffffffffffffffffffffffffff16815260200191505060405180910390f35b610b9860048036036020811015610af557600080fd5b8101908080359060200190640100000000811115610b1257600080fd5b820183602082011115610b2457600080fd5b80359060200191846001830284011164010000000083111715610b4657600080fd5b91908080601f016020809104026020016040519081016040528093929190818152602001838380828437600081840152601f19601f8201169050808301925050505050505091929192905050506122ae565b60405180846fffffffffffffffffffffffffffffffff168152602001836fffffffffffffffffffffffffffffffff168152602001828152602001935050505060405180910390f35b610be8612326565b6040518080602001828103825283818151815260200191508051906020019080838360005b83811015610c28578082015181840152602081019050610c0d565b50505050905090810190601f168015610c555780820380516001836020036101000a031916815260200191505b509250505060405180910390f35b610cb160048036036040811015610c7957600080fd5b81019080803573ffffffffffffffffffffffffffffffffffffffff1690602001909291908035151590602001909291905050506123c8565b005b610e2660048036036080811015610cc957600080fd5b8101908080359060200190640100000000811115610ce657600080fd5b820183602082011115610cf857600080fd5b80359060200191846001830284011164010000000083111715610d1a57600080fd5b91908080601f016020809104026020016040519081016040528093929190818152602001838380828437600081840152601f19601f82011690508083019250505050505050919291929080356fffffffffffffffffffffffffffffffff1690602001909291908035906020019092919080359060200190640100000000811115610da357600080fd5b820183602082011115610db557600080fd5b80359060200191846020830284011164010000000083111715610dd757600080fd5b919080806020026020016040519081016040528093929190818152602001838360200280828437600081840152601f19601f82011690508083019250505050505050919291929050505061257e565b005b610eeb60048036036040811015610e3e57600080fd5b8101908080359060200190640100000000811115610e5b57600080fd5b820183602082011115610e6d57600080fd5b80359060200191846001830284011164010000000083111715610e8f57600080fd5b91908080601f016020809104026020016040519081016040528093929190818152602001838380828437600081840152601f19601f820116905080830192505050505050509192919290803590602001909291905050506128b9565b005b610ff060048036036080811015610f0357600080fd5b81019080803573ffffffffffffffffffffffffffffffffffffffff169060200190929190803573ffffffffffffffffffffffffffffffffffffffff1690602001909291908035906020019092919080359060200190640100000000811115610f6a57600080fd5b820183602082011115610f7c57600080fd5b80359060200191846001830284011164010000000083111715610f9e57600080fd5b91908080601f016020809104026020016040519081016040528093929190818152602001838380828437600081840152601f19601f820116905080830192505050505050509192919290505050612a9b565b005b61101e6004803603602081101561100857600080fd5b8101908080359060200190929190505050612b13565b6040518080602001828103825283818151815260200191508051906020019080838360005b8381101561105e578082015181840152602081019050611043565b50505050905090810190601f16801561108b5780820380516001836020036101000a031916815260200191505b509250505060405180910390f35b611172600480360360408110156110af57600080fd5b81019080803573ffffffffffffffffffffffffffffffffffffffff169060200190929190803590602001906401000000008111156110ec57600080fd5b8201836020820111156110fe57600080fd5b8035906020019184600183028401116401000000008311171561112057600080fd5b91908080601f016020809104026020016040519081016040528093929190818152602001838380828437600081840152601f19601f820116905080830192505050505050509192919290505050612de4565b6040518082815260200191505060405180910390f35b6112f56004803603606081101561119e57600080fd5b81019080803590602001906401000000008111156111bb57600080fd5b8201836020820111156111cd57600080fd5b803590602001918460018302840111640100000000831117156111ef57600080fd5b91908080601f016020809104026020016040519081016040528093929190818152602001838380828437600081840152601f19601f8201169050808301925050505050505091929192908035906020019064010000000081111561125257600080fd5b82018360208201111561126457600080fd5b8035906020019184602083028401116401000000008311171561128657600080fd5b919080806020026020016040519081016040528093929190818152602001838360200280828437600081840152601f19601f820116905080830192505050505050509192919290803573ffffffffffffffffffffffffffffffffffffffff169060200190929190505050612e1f565b6040518082815260200191505060405180910390f35b61136d6004803603604081101561132157600080fd5b81019080803573ffffffffffffffffffffffffffffffffffffffff169060200190929190803573ffffffffffffffffffffffffffffffffffffffff169060200190929190505050612faa565b60405180821515815260200191505060405180910390f35b6113c76004803603602081101561139b57600080fd5b81019080803573ffffffffffffffffffffffffffffffffffffffff16906020019092919050505061303e565b005b6000806000837bffffffffffffffffffffffffffffffffffffffffffffffffffffffff19167bffffffffffffffffffffffffffffffffffffffffffffffffffffffff1916815260200190815260200160002060009054906101000a900460ff169050919050565b60011515600c60003373ffffffffffffffffffffffffffffffffffffffff1673ffffffffffffffffffffffffffffffffffffffff16815260200190815260200160002060009054906101000a900460ff1615151461148d57600080fd5b6000600d846040518082805190602001908083835b602083106114c557805182526020820191506020810190506020830392506114a2565b6001836020036101000a038019825116818451168082178552505050505050905001915050908152602001604051809103902060000160009054906101000a90046fffffffffffffffffffffffffffffffff166fffffffffffffffffffffffffffffffff161161159d576040517f08c379a00000000000000000000000000000000000000000000000000000000081526004018080602001828103825260188152602001807f5a4b553a204e6f20636f686f7274206c696d697420736574000000000000000081525060200191505060405180910390fd5b81600d846040518082805190602001908083835b602083106115d457805182526020820191506020810190506020830392506115b1565b6001836020036101000a0380198251168184511680821785525050505050509050019150509081526020016040518091039020600201908051906020019061161d929190614dd2565b5080600d846040518082805190602001908083835b602083106116555780518252602082019150602081019050602083039250611632565b6001836020036101000a038019825116818451168082178552505050505050905001915050908152602001604051809103902060000160006101000a8154816fffffffffffffffffffffffffffffffff02191690836fffffffffffffffffffffffffffffffff160217905550505050565b606060068054600181600116156101000203166002900480601f01602080910402602001604051908101604052809291908181526020018280546001816001161561010002031660029004801561175e5780601f106117335761010080835404028352916020019161175e565b820191906000526020600020905b81548152906001019060200180831161174157829003601f168201915b5050505050905090565b600061177382613233565b6117c8576040517f08c379a000000000000000000000000000000000000000000000000000000000815260040180806020018281038252602c8152602001806150c9602c913960400191505060405180910390fd5b6004600083815260200190815260200160002060009054906101000a900473ffffffffffffffffffffffffffffffffffffffff169050919050565b600061180e82611e5c565b90508073ffffffffffffffffffffffffffffffffffffffff168373ffffffffffffffffffffffffffffffffffffffff161415611895576040517f08c379a00000000000000000000000000000000000000000000000000000000081526004018080602001828103825260218152602001806151c16021913960400191505060405180910390fd5b8073ffffffffffffffffffffffffffffffffffffffff166118b4613250565b73ffffffffffffffffffffffffffffffffffffffff1614806118e357506118e2816118dd613250565b612faa565b5b611938576040517f08c379a0000000000000000000000000000000000000000000000000000000008152600401808060200182810382526038815260200180614ffb6038913960400191505060405180910390fd5b6119428383613258565b505050565b60006119536002613311565b905090565b611969611963613250565b82613326565b6119be576040517f08c379a00000000000000000000000000000000000000000000000000000000081526004018080602001828103825260318152602001806151e26031913960400191505060405180910390fd5b6119c983838361341a565b505050565b6000611a2182600160008673ffffffffffffffffffffffffffffffffffffffff1673ffffffffffffffffffffffffffffffffffffffff16815260200190815260200160002061365d90919063ffffffff16565b905092915050565b6000828233600081604051602001808273ffffffffffffffffffffffffffffffffffffffff1660601b8152601401915050604051602081830303815290604052805190602001209050611ae983600d866040518082805190602001908083835b60208310611aac5780518252602082019150602081019050602083039250611a89565b6001836020036101000a03801982511681845116808217855250505050505090500191505090815260200160405180910390206001015483613677565b611b3e576040517f08c379a0000000000000000000000000000000000000000000000000000000008152600401808060200182810382526023815260200180614f0a6023913960400191505060405180910390fd5b600033604051602001808273ffffffffffffffffffffffffffffffffffffffff1660601b8152601401915050604051602081830303815290604052805190602001209050611bf987600d8a6040518082805190602001908083835b60208310611bbc5780518252602082019150602081019050602083039250611b99565b6001836020036101000a03801982511681845116808217855250505050505090500191505090815260200160405180910390206001015483613677565b611c4e576040517f08c379a0000000000000000000000000000000000000000000000000000000008152600401808060200182810382526023815260200180614f0a6023913960400191505060405180910390fd5b611c5a8833600061372c565b9550505050505092915050565b611c8283838360405180602001604052806000815250612a9b565b505050565b600080611c9e836002613d9a90919063ffffffff16565b50905080915050919050565b60606000600d836040518082805190602001908083835b60208310611ce45780518252602082019150602081019050602083039250611cc1565b6001836020036101000a0380198251168184511680821785525050505050509050019150509081526020016040518091039020600201600d846040518082805190602001908083835b60208310611d505780518252602082019150602081019050602083039250611d2d565b6001836020036101000a03801982511681845116808217855250505050505090500191505090815260200160405180910390206001015481805480602002602001604051908101604052809291908181526020018280548015611dd257602002820191906000526020600020905b815481526020019060010190808311611dbe575b5050505050915091509150915091565b60011515600c60003373ffffffffffffffffffffffffffffffffffffffff1673ffffffffffffffffffffffffffffffffffffffff16815260200190815260200160002060009054906101000a900460ff16151514611e3f57600080fd5b80601060006101000a81548160ff02191690831515021790555050565b6000611e8c8260405180606001604052806029815260200161505d602991396002613dc69092919063ffffffff16565b9050919050565b611e9b613250565b73ffffffffffffffffffffffffffffffffffffffff16611eb9612284565b73ffffffffffffffffffffffffffffffffffffffff1614611f42576040517f08c379a00000000000000000000000000000000000000000000000000000000081526004018080602001828103825260208152602001807f4f776e61626c653a2063616c6c6572206973206e6f7420746865206f776e657281525060200191505060405180910390fd5b80600c60008473ffffffffffffffffffffffffffffffffffffffff1673ffffffffffffffffffffffffffffffffffffffff16815260200190815260200160002060006101000a81548160ff0219169083151502179055505050565b606060098054600181600116156101000203166002900480601f0160208091040260200160405190810160405280929190818152602001828054600181600116156101000203166002900480156120355780601f1061200a57610100808354040283529160200191612035565b820191906000526020600020905b81548152906001019060200180831161201857829003601f168201915b5050505050905090565b60008073ffffffffffffffffffffffffffffffffffffffff168273ffffffffffffffffffffffffffffffffffffffff1614156120c6576040517f08c379a000000000000000000000000000000000000000000000000000000000815260040180806020018281038252602a815260200180615033602a913960400191505060405180910390fd5b61210d600160008473ffffffffffffffffffffffffffffffffffffffff1673ffffffffffffffffffffffffffffffffffffffff168152602001908152602001600020613de5565b9050919050565b61211c613250565b73ffffffffffffffffffffffffffffffffffffffff1661213a612284565b73ffffffffffffffffffffffffffffffffffffffff16146121c3576040517f08c379a00000000000000000000000000000000000000000000000000000000081526004018080602001828103825260208152602001807f4f776e61626c653a2063616c6c6572206973206e6f7420746865206f776e657281525060200191505060405180910390fd5b600073ffffffffffffffffffffffffffffffffffffffff16600a60009054906101000a900473ffffffffffffffffffffffffffffffffffffffff1673ffffffffffffffffffffffffffffffffffffffff167f8be0079c531659141344cd1fd0a4f28419497f9722a3daafe3b4186f6b6457e060405160405180910390a36000600a60006101000a81548173ffffffffffffffffffffffffffffffffffffffff021916908373ffffffffffffffffffffffffffffffffffffffff160217905550565b6000600a60009054906101000a900473ffffffffffffffffffffffffffffffffffffffff16905090565b600d818051602081018201805184825260208301602085012081835280955050505050506000915090508060000160009054906101000a90046fffffffffffffffffffffffffffffffff16908060000160109054906101000a90046fffffffffffffffffffffffffffffffff16908060010154905083565b606060078054600181600116156101000203166002900480601f0160208091040260200160405190810160405280929190818152602001828054600181600116156101000203166002900480156123be5780601f10612393576101008083540402835291602001916123be565b820191906000526020600020905b8154815290600101906020018083116123a157829003601f168201915b5050505050905090565b6123d0613250565b73ffffffffffffffffffffffffffffffffffffffff168273ffffffffffffffffffffffffffffffffffffffff161415612471576040517f08c379a00000000000000000000000000000000000000000000000000000000081526004018080602001828103825260198152602001807f4552433732313a20617070726f766520746f2063616c6c65720000000000000081525060200191505060405180910390fd5b806005600061247e613250565b73ffffffffffffffffffffffffffffffffffffffff1673ffffffffffffffffffffffffffffffffffffffff16815260200190815260200160002060008473ffffffffffffffffffffffffffffffffffffffff1673ffffffffffffffffffffffffffffffffffffffff16815260200190815260200160002060006101000a81548160ff0219169083151502179055508173ffffffffffffffffffffffffffffffffffffffff1661252b613250565b73ffffffffffffffffffffffffffffffffffffffff167f17307eab39ab6107e8899845ad3d59bd9653f200f220920489ca2b5937696c318360405180821515815260200191505060405180910390a35050565b60011515600c60003373ffffffffffffffffffffffffffffffffffffffff1673ffffffffffffffffffffffffffffffffffffffff16815260200190815260200160002060009054906101000a900460ff161515146125db57600080fd5b6000600d856040518082805190602001908083835b6020831061261357805182526020820191506020810190506020830392506125f0565b6001836020036101000a038019825116818451168082178552505050505050905001915050908152602001604051809103902060000160009054906101000a90046fffffffffffffffffffffffffffffffff166fffffffffffffffffffffffffffffffff16146126eb576040517f08c379a000000000000000000000000000000000000000000000000000000000815260040180806020018281038252601a8152602001807f5a4b553a20436f686f727420616c72656164792065786973747300000000000081525060200191505060405180910390fd5b6000836fffffffffffffffffffffffffffffffff1611612756576040517f08c379a00000000000000000000000000000000000000000000000000000000081526004018080602001828103825260218152602001806150a86021913960400191505060405180910390fd5b60006040518060800160405280856fffffffffffffffffffffffffffffffff16815260200160006fffffffffffffffffffffffffffffffff16815260200184815260200183815250905080600d866040518082805190602001908083835b602083106127d757805182526020820191506020810190506020830392506127b4565b6001836020036101000a038019825116818451168082178552505050505050905001915050908152602001604051809103902060008201518160000160006101000a8154816fffffffffffffffffffffffffffffffff02191690836fffffffffffffffffffffffffffffffff16021790555060208201518160000160106101000a8154816fffffffffffffffffffffffffffffffff02191690836fffffffffffffffffffffffffffffffff1602179055506040820151816001015560608201518160020190805190602001906128ae929190614dd2565b509050505050505050565b60011515600c60003373ffffffffffffffffffffffffffffffffffffffff1673ffffffffffffffffffffffffffffffffffffffff16815260200190815260200160002060009054906101000a900460ff1615151461291657600080fd5b6000600d836040518082805190602001908083835b6020831061294e578051825260208201915060208101905060208303925061292b565b6001836020036101000a038019825116818451168082178552505050505050905001915050908152602001604051809103902060000160009054906101000a90046fffffffffffffffffffffffffffffffff166fffffffffffffffffffffffffffffffff1611612a26576040517f08c379a00000000000000000000000000000000000000000000000000000000081526004018080602001828103825260188152602001807f5a4b553a204e6f20636f686f7274206c696d697420736574000000000000000081525060200191505060405180910390fd5b80600d836040518082805190602001908083835b60208310612a5d5780518252602082019150602081019050602083039250612a3a565b6001836020036101000a0380198251168184511680821785525050505050509050019150509081526020016040518091039020600101819055505050565b612aac612aa6613250565b83613326565b612b01576040517f08c379a00000000000000000000000000000000000000000000000000000000081526004018080602001828103825260318152602001806151e26031913960400191505060405180910390fd5b612b0d84848484613dfa565b50505050565b6060612b1e82613233565b612b73576040517f08c379a000000000000000000000000000000000000000000000000000000000815260040180806020018281038252602f815260200180615192602f913960400191505060405180910390fd5b6000600860008481526020019081526020016000208054600181600116156101000203166002900480601f016020809104026020016040519081016040528092919081815260200182805460018160011615610100020316600290048015612c1c5780601f10612bf157610100808354040283529160200191612c1c565b820191906000526020600020905b815481529060010190602001808311612bff57829003601f168201915b505050505090506000612c2d611f9d565b9050600081511415612c43578192505050612ddf565b600082511115612d145780826040516020018083805190602001908083835b60208310612c855780518252602082019150602081019050602083039250612c62565b6001836020036101000a03801982511681845116808217855250505050505090500182805190602001908083835b60208310612cd65780518252602082019150602081019050602083039250612cb3565b6001836020036101000a0380198251168184511680821785525050505050509050019250505060405160208183030381529060405292505050612ddf565b80612d1e85613e6c565b6040516020018083805190602001908083835b60208310612d545780518252602082019150602081019050602083039250612d31565b6001836020036101000a03801982511681845116808217855250505050505090500182805190602001908083835b60208310612da55780518252602082019150602081019050602083039250612d82565b6001836020036101000a03801982511681845116808217855250505050505090500192505050604051602081830303815290604052925050505b919050565b600b60205281600052604060002081805160208101820180518482526020830160208501208183528095505050505050600091509150505481565b600060011515600c60003373ffffffffffffffffffffffffffffffffffffffff1673ffffffffffffffffffffffffffffffffffffffff16815260200190815260200160002060009054906101000a900460ff16151514612e7e57600080fd5b838383600081604051602001808273ffffffffffffffffffffffffffffffffffffffff1660601b8152601401915050604051602081830303815290604052805190602001209050612f3c83600d866040518082805190602001908083835b60208310612eff5780518252602082019150602081019050602083039250612edc565b6001836020036101000a03801982511681845116808217855250505050505090500191505090815260200160405180910390206001015483613677565b612f91576040517f08c379a0000000000000000000000000000000000000000000000000000000008152600401808060200182810382526023815260200180614f0a6023913960400191505060405180910390fd5b612f9d8887600161372c565b9450505050509392505050565b6000600560008473ffffffffffffffffffffffffffffffffffffffff1673ffffffffffffffffffffffffffffffffffffffff16815260200190815260200160002060008373ffffffffffffffffffffffffffffffffffffffff1673ffffffffffffffffffffffffffffffffffffffff16815260200190815260200160002060009054906101000a900460ff16905092915050565b613046613250565b73ffffffffffffffffffffffffffffffffffffffff16613064612284565b73ffffffffffffffffffffffffffffffffffffffff16146130ed576040517f08c379a00000000000000000000000000000000000000000000000000000000081526004018080602001828103825260208152602001807f4f776e61626c653a2063616c6c6572206973206e6f7420746865206f776e657281525060200191505060405180910390fd5b600073ffffffffffffffffffffffffffffffffffffffff168173ffffffffffffffffffffffffffffffffffffffff161415613173576040517f08c379a0000000000000000000000000000000000000000000000000000000008152600401808060200182810382526026815260200180614f5f6026913960400191505060405180910390fd5b8073ffffffffffffffffffffffffffffffffffffffff16600a60009054906101000a900473ffffffffffffffffffffffffffffffffffffffff1673ffffffffffffffffffffffffffffffffffffffff167f8be0079c531659141344cd1fd0a4f28419497f9722a3daafe3b4186f6b6457e060405160405180910390a380600a60006101000a81548173ffffffffffffffffffffffffffffffffffffffff021916908373ffffffffffffffffffffffffffffffffffffffff16021790555050565b6000613249826002613fb390919063ffffffff16565b9050919050565b600033905090565b816004600083815260200190815260200160002060006101000a81548173ffffffffffffffffffffffffffffffffffffffff021916908373ffffffffffffffffffffffffffffffffffffffff160217905550808273ffffffffffffffffffffffffffffffffffffffff166132cb83611e5c565b73ffffffffffffffffffffffffffffffffffffffff167f8c5be1e5ebec7d5bd14f71427d1e84f3dd0314c0f7b2291e5b200ac8c7c3b92560405160405180910390a45050565b600061331f82600001613fcd565b9050919050565b600061333182613233565b613386576040517f08c379a000000000000000000000000000000000000000000000000000000000815260040180806020018281038252602c815260200180614fcf602c913960400191505060405180910390fd5b600061339183611e5c565b90508073ffffffffffffffffffffffffffffffffffffffff168473ffffffffffffffffffffffffffffffffffffffff16148061340057508373ffffffffffffffffffffffffffffffffffffffff166133e884611768565b73ffffffffffffffffffffffffffffffffffffffff16145b8061341157506134108185612faa565b5b91505092915050565b8273ffffffffffffffffffffffffffffffffffffffff1661343a82611e5c565b73ffffffffffffffffffffffffffffffffffffffff16146134a6576040517f08c379a00000000000000000000000000000000000000000000000000000000081526004018080602001828103825260298152602001806151426029913960400191505060405180910390fd5b600073ffffffffffffffffffffffffffffffffffffffff168273ffffffffffffffffffffffffffffffffffffffff16141561352c576040517f08c379a0000000000000000000000000000000000000000000000000000000008152600401808060200182810382526024815260200180614f856024913960400191505060405180910390fd5b613537838383613fde565b613542600082613258565b61359381600160008673ffffffffffffffffffffffffffffffffffffffff1673ffffffffffffffffffffffffffffffffffffffff1681526020019081526020016000206140de90919063ffffffff16565b506135e581600160008573ffffffffffffffffffffffffffffffffffffffff1673ffffffffffffffffffffffffffffffffffffffff1681526020019081526020016000206140f890919063ffffffff16565b506135fc818360026141129092919063ffffffff16565b50808273ffffffffffffffffffffffffffffffffffffffff168473ffffffffffffffffffffffffffffffffffffffff167fddf252ad1be2c89b69c2b068fc378daa952ba7f163c4a11628f55a4df523b3ef60405160405180910390a4505050565b600061366c8360000183614147565b60001c905092915050565b60008082905060005b855181101561371e57600086828151811061369757fe5b602002602001015190508083116136de5782816040516020018083815260200182815260200192505050604051602081830303815290604052805190602001209250613710565b808360405160200180838152602001828152602001925050506040516020818303038152906040528051906020012092505b508080600101915050613680565b508381149150509392505050565b60008383600d826040518082805190602001908083835b602083106137665780518252602082019150602081019050602083039250613743565b6001836020036101000a038019825116818451168082178552505050505050905001915050908152602001604051809103902060000160009054906101000a90046fffffffffffffffffffffffffffffffff166fffffffffffffffffffffffffffffffff16600d836040518082805190602001908083835b6020831061380157805182526020820191506020810190506020830392506137de565b6001836020036101000a038019825116818451168082178552505050505050905001915050908152602001604051809103902060000160109054906101000a90046fffffffffffffffffffffffffffffffff166fffffffffffffffffffffffffffffffff16106138bc576040517f08c379a00000000000000000000000000000000000000000000000000000000081526004018080602001828103825260218152602001806151216021913960400191505060405180910390fd5b6000600b60008373ffffffffffffffffffffffffffffffffffffffff1673ffffffffffffffffffffffffffffffffffffffff168152602001908152602001600020836040518082805190602001908083835b60208310613931578051825260208201915060208101905060208303925061390e565b6001836020036101000a038019825116818451168082178552505050505050905001915050908152602001604051809103902054146139bb576040517f08c379a000000000000000000000000000000000000000000000000000000000815260040180806020018281038252602781526020018061516b6027913960400191505060405180910390fd5b6000600d876040518082805190602001908083835b602083106139f357805182526020820191506020810190506020830392506139d0565b6001836020036101000a038019825116818451168082178552505050505050905001915050908152602001604051809103902060000160109054906101000a90046fffffffffffffffffffffffffffffffff1690506000600f886040516020018083805460018160011615610100020316600290048015613aab5780601f10613a89576101008083540402835291820191613aab565b820191906000526020600020905b815481529060010190602001808311613a97575b505082805190602001908083835b60208310613adc5780518252602082019150602081019050602083039250613ab9565b6001836020036101000a038019825116818451168082178552505050505050905001807f2f6d657461646174612e6a736f6e000000000000000000000000000000000000815250600e019250505060405160208183030381529060405290506000613b47600e6141ca565b905080600b60008a73ffffffffffffffffffffffffffffffffffffffff1673ffffffffffffffffffffffffffffffffffffffff1681526020019081526020016000208a6040518082805190602001908083835b60208310613bbd5780518252602082019150602081019050602083039250613b9a565b6001836020036101000a038019825116818451168082178552505050505050905001915050908152602001604051809103902081905550613bfe88826141d8565b886040518082805190602001908083835b60208310613c325780518252602082019150602081019050602083039250613c0f565b6001836020036101000a03801982511681845116808217855250505050505090500191505060405180910390208873ffffffffffffffffffffffffffffffffffffffff167f436ed5ad57b88689854d2b756b16ffc1e461f71b9c88bc4316a6b58e9d7fc80985848b60405180846fffffffffffffffffffffffffffffffff1681526020018381526020018215158152602001935050505060405180910390a3613cdb81836141f6565b60018301600d8a6040518082805190602001908083835b60208310613d155780518252602082019150602081019050602083039250613cf2565b6001836020036101000a038019825116818451168082178552505050505050905001915050908152602001604051809103902060000160106101000a8154816fffffffffffffffffffffffffffffffff02191690836fffffffffffffffffffffffffffffffff160217905550613d8b600e614280565b80955050505050509392505050565b600080600080613dad8660000186614296565b915091508160001c8160001c9350935050509250929050565b6000613dd9846000018460001b8461432f565b60001c90509392505050565b6000613df382600001614425565b9050919050565b613e0584848461341a565b613e1184848484614436565b613e66576040517f08c379a0000000000000000000000000000000000000000000000000000000008152600401808060200182810382526032815260200180614f2d6032913960400191505060405180910390fd5b50505050565b60606000821415613eb4576040518060400160405280600181526020017f30000000000000000000000000000000000000000000000000000000000000008152509050613fae565b600082905060005b60008214613ede578080600101915050600a8281613ed657fe5b049150613ebc565b60008167ffffffffffffffff81118015613ef757600080fd5b506040519080825280601f01601f191660200182016040528015613f2a5781602001600182028036833780820191505090505b50905060006001830390508593505b60008414613fa657600a8481613f4b57fe5b0660300160f81b82828060019003935081518110613f6557fe5b60200101907effffffffffffffffffffffffffffffffffffffffffffffffffffffffffffff1916908160001a905350600a8481613f9e57fe5b049350613f39565b819450505050505b919050565b6000613fc5836000018360001b61464f565b905092915050565b600081600001805490509050919050565b600073ffffffffffffffffffffffffffffffffffffffff168373ffffffffffffffffffffffffffffffffffffffff1614806140455750600073ffffffffffffffffffffffffffffffffffffffff168273ffffffffffffffffffffffffffffffffffffffff16145b8061405c5750601060009054906101000a900460ff165b6140ce576040517f08c379a00000000000000000000000000000000000000000000000000000000081526004018080602001828103825260178152602001807f4e6f7420616c6c6f77656420746f207472616e7366657200000000000000000081525060200191505060405180910390fd5b6140d9838383614672565b505050565b60006140f0836000018360001b614677565b905092915050565b600061410a836000018360001b61475f565b905092915050565b600061413e846000018460001b8473ffffffffffffffffffffffffffffffffffffffff1660001b6147cf565b90509392505050565b6000818360000180549050116141a8576040517f08c379a0000000000000000000000000000000000000000000000000000000008152600401808060200182810382526022815260200180614ee86022913960400191505060405180910390fd5b8260000182815481106141b757fe5b9060005260206000200154905092915050565b600081600001549050919050565b6141f28282604051806020016040528060008152506148ab565b5050565b6141ff82613233565b614254576040517f08c379a000000000000000000000000000000000000000000000000000000000815260040180806020018281038252602c8152602001806150f5602c913960400191505060405180910390fd5b8060086000848152602001908152602001600020908051906020019061427b929190614e1f565b505050565b6001816000016000828254019250508190555050565b600080828460000180549050116142f8576040517f08c379a00000000000000000000000000000000000000000000000000000000081526004018080602001828103825260228152602001806150866022913960400191505060405180910390fd5b600084600001848154811061430957fe5b906000526020600020906002020190508060000154816001015492509250509250929050565b600080846001016000858152602001908152602001600020549050600081141583906143f6576040517f08c379a00000000000000000000000000000000000000000000000000000000081526004018080602001828103825283818151815260200191508051906020019080838360005b838110156143bb5780820151818401526020810190506143a0565b50505050905090810190601f1680156143e85780820380516001836020036101000a031916815260200191505b509250505060405180910390fd5b5084600001600182038154811061440957fe5b9060005260206000209060020201600101549150509392505050565b600081600001805490509050919050565b60006144578473ffffffffffffffffffffffffffffffffffffffff1661491c565b6144645760019050614647565b60006145ce63150b7a0260e01b614479613250565b888787604051602401808573ffffffffffffffffffffffffffffffffffffffff1681526020018473ffffffffffffffffffffffffffffffffffffffff16815260200183815260200180602001828103825283818151815260200191508051906020019080838360005b838110156144fd5780820151818401526020810190506144e2565b50505050905090810190601f16801561452a5780820380516001836020036101000a031916815260200191505b5095505050505050604051602081830303815290604052907bffffffffffffffffffffffffffffffffffffffffffffffffffffffff19166020820180517bffffffffffffffffffffffffffffffffffffffffffffffffffffffff8381831617835250505050604051806060016040528060328152602001614f2d603291398773ffffffffffffffffffffffffffffffffffffffff1661492f9092919063ffffffff16565b905060008180602001905160208110156145e757600080fd5b8101908080519060200190929190505050905063150b7a0260e01b7bffffffffffffffffffffffffffffffffffffffffffffffffffffffff1916817bffffffffffffffffffffffffffffffffffffffffffffffffffffffff191614925050505b949350505050565b600080836001016000848152602001908152602001600020541415905092915050565b505050565b6000808360010160008481526020019081526020016000205490506000811461475357600060018203905060006001866000018054905003905060008660000182815481106146c257fe5b90600052602060002001549050808760000184815481106146df57fe5b906000526020600020018190555060018301876001016000838152602001908152602001600020819055508660000180548061471757fe5b60019003818190600052602060002001600090559055866001016000878152602001908152602001600020600090556001945050505050614759565b60009150505b92915050565b600061476b8383614947565b6147c45782600001829080600181540180825580915050600190039060005260206000200160009091909190915055826000018054905083600101600084815260200190815260200160002081905550600190506147c9565b600090505b92915050565b6000808460010160008581526020019081526020016000205490506000811415614876578460000160405180604001604052808681526020018581525090806001815401808255809150506001900390600052602060002090600202016000909190919091506000820151816000015560208201518160010155505084600001805490508560010160008681526020019081526020016000208190555060019150506148a4565b8285600001600183038154811061488957fe5b90600052602060002090600202016001018190555060009150505b9392505050565b6148b5838361496a565b6148c26000848484614436565b614917576040517f08c379a0000000000000000000000000000000000000000000000000000000008152600401808060200182810382526032815260200180614f2d6032913960400191505060405180910390fd5b505050565b600080823b905060008111915050919050565b606061493e8484600085614b5e565b90509392505050565b600080836001016000848152602001908152602001600020541415905092915050565b600073ffffffffffffffffffffffffffffffffffffffff168273ffffffffffffffffffffffffffffffffffffffff161415614a0d576040517f08c379a00000000000000000000000000000000000000000000000000000000081526004018080602001828103825260208152602001807f4552433732313a206d696e7420746f20746865207a65726f206164647265737381525060200191505060405180910390fd5b614a1681613233565b15614a89576040517f08c379a000000000000000000000000000000000000000000000000000000000815260040180806020018281038252601c8152602001807f4552433732313a20746f6b656e20616c7265616479206d696e7465640000000081525060200191505060405180910390fd5b614a9560008383613fde565b614ae681600160008573ffffffffffffffffffffffffffffffffffffffff1673ffffffffffffffffffffffffffffffffffffffff1681526020019081526020016000206140f890919063ffffffff16565b50614afd818360026141129092919063ffffffff16565b50808273ffffffffffffffffffffffffffffffffffffffff16600073ffffffffffffffffffffffffffffffffffffffff167fddf252ad1be2c89b69c2b068fc378daa952ba7f163c4a11628f55a4df523b3ef60405160405180910390a45050565b606082471015614bb9576040517f08c379a0000000000000000000000000000000000000000000000000000000008152600401808060200182810382526026815260200180614fa96026913960400191505060405180910390fd5b614bc28561491c565b614c34576040517f08c379a000000000000000000000000000000000000000000000000000000000815260040180806020018281038252601d8152602001807f416464726573733a2063616c6c20746f206e6f6e2d636f6e747261637400000081525060200191505060405180910390fd5b6000808673ffffffffffffffffffffffffffffffffffffffff1685876040518082805190602001908083835b60208310614c835780518252602082019150602081019050602083039250614c60565b6001836020036101000a03801982511681845116808217855250505050505090500191505060006040518083038185875af1925050503d8060008114614ce5576040519150601f19603f3d011682016040523d82523d6000602084013e614cea565b606091505b5091509150614cfa828286614d06565b92505050949350505050565b60608315614d1657829050614dcb565b600083511115614d295782518084602001fd5b816040517f08c379a00000000000000000000000000000000000000000000000000000000081526004018080602001828103825283818151815260200191508051906020019080838360005b83811015614d90578082015181840152602081019050614d75565b50505050905090810190601f168015614dbd5780820380516001836020036101000a031916815260200191505b509250505060405180910390fd5b9392505050565b828054828255906000526020600020908101928215614e0e579160200282015b82811115614e0d578251825591602001919060010190614df2565b5b509050614e1b9190614ead565b5090565b828054600181600116156101000203166002900490600052602060002090601f016020900481019282614e555760008555614e9c565b82601f10614e6e57805160ff1916838001178555614e9c565b82800160010185558215614e9c579182015b82811115614e9b578251825591602001919060010190614e80565b5b509050614ea99190614eca565b5090565b5b80821115614ec6576000816000905550600101614eae565b5090565b5b80821115614ee3576000816000905550600101614ecb565b509056fe456e756d657261626c655365743a20696e646578206f7574206f6620626f756e64735a4b553a2061646472657373206e6f7420656c696769626c6520666f7220636c61696d4552433732313a207472616e7366657220746f206e6f6e20455243373231526563656976657220696d706c656d656e7465724f776e61626c653a206e6577206f776e657220697320746865207a65726f20616464726573734552433732313a207472616e7366657220746f20746865207a65726f2061646472657373416464726573733a20696e73756666696369656e742062616c616e636520666f722063616c6c4552433732313a206f70657261746f7220717565727920666f72206e6f6e6578697374656e7420746f6b656e4552433732313a20617070726f76652063616c6c6572206973206e6f74206f776e6572206e6f7220617070726f76656420666f7220616c6c4552433732313a2062616c616e636520717565727920666f7220746865207a65726f20616464726573734552433732313a206f776e657220717565727920666f72206e6f6e6578697374656e7420746f6b656e456e756d657261626c654d61703a20696e646578206f7574206f6620626f756e64735a4b553a204c696d6974206d7573742062652067726561746572207468616e20304552433732313a20617070726f76656420717565727920666f72206e6f6e6578697374656e7420746f6b656e4552433732314d657461646174613a2055524920736574206f66206e6f6e6578697374656e7420746f6b656e5a4b553a206d617820746f6b656e732069737375656420666f7220636f686f72744552433732313a207472616e73666572206f6620746f6b656e2074686174206973206e6f74206f776e5a4b553a20616464726573732068617320616c726561647920636c61696d656420746f6b656e2e4552433732314d657461646174613a2055524920717565727920666f72206e6f6e6578697374656e7420746f6b656e4552433732313a20617070726f76616c20746f2063757272656e74206f776e65724552433732313a207472616e736665722063616c6c6572206973206e6f74206f776e6572206e6f7220617070726f766564a264697066735822122067a23c94e08b6bba9fafeb8906305b5335fea9ed786b67a5c6c1429ccf2f6f2764736f6c63430007060033",
  "linkReferences": {},
  "deployedLinkReferences": {}
}